:100000000C9462000C948A000C948A000C948A0070
:100010000C948A000C948A000C948A000C948A0038
:100020000C948A000C948A000C948A000C948A0028
:100030000C948A000C948A000C948A000C948A0018
:100040000C945B020C948A000C94CB020C94A502D5
:100050000C948A000C948A000C948A000C948A00F8
:100060000C948A000C948A000000000024002700F1
:100070002A0000000000250028002B0000000000DE
:1000800023002600290004040404040404040202DA
:100090000202020203030303030301020408102007
:1000A0004080010204081020010204081020000012
:1000B0000008000201000003040700000000000027
:1000C0000000A30411241FBECFEFD8E0DEBFCDBFD8
:1000D00011E0A0E0B1E0EAEBF9E002C005900D927A
:1000E000A231B107D9F721E0A2E1B1E001C01D9230
:1000F000A33CB207E1F710E0C2E6D0E004C02197CC
:10010000FE010E94D004C136D107C9F70E94FD024A
:100110000C94DB040C940000833081F028F48130CF
:1001200099F08230A1F008958730A9F08830B9F0B5
:100130008430D1F4809180008F7D03C08091800055
:100140008F7780938000089584B58F7702C084B53F
:100150008F7D84BD08958091B0008F7703C080911A
:10016000B0008F7D8093B0000895CF93DF93282F48
:1001700030E0F901E255FF4F8491F901E656FF4F57
:10018000D491F901EA57FF4FC491CC2391F081112A
:100190000E948C00EC2FF0E0EE0FFF1FE458FF4FA1
:1001A000A591B491EC91ED2381E090E021F480E001
:1001B00002C080E090E0DF91CF9108951F93CF932C
:1001C000DF93282F30E0F901E255FF4F8491F901C8
:1001D000E656FF4FD491F901EA57FF4FC491CC2363
:1001E000C1F0162F81110E948C00EC2FF0E0EE0F71
:1001F000FF1FEE58FF4FA591B4919FB7F8941111CE
:1002000004C08C91D095D82302C0EC91DE2BDC93F6
:100210009FBFDF91CF911F910895CF93DF9390E01F
:10022000FC01E656FF4F2491FC01EA57FF4F8491F1
:10023000882361F190E0880F991FFC01E859FF4F76
:10024000C591D491FC01EE58FF4FA591B491611175
:1002500009C09FB7F8948881209582238883EC9108
:100260002E230BC0623061F49FB7F8948881322F3F
:10027000309583238883EC912E2B2C939FBF06C04F
:100280008FB7F894E8812E2B28838FBFDF91CF9111
:100290000895CF92DF92EF92FF920F931F93CF9327
:1002A000DF936C017A018B01C0E0D0E0CE15DF0551
:1002B00081F0D8016D918D01D601ED91FC910190F5
:1002C000F081E02DC6010995892B11F02196EECF22
:1002D0007E01C701DF91CF911F910F91FF90EF90A9
:1002E000DF90CF900895089580E090E00895FC019C
:1002F000538D448D252F30E0842F90E0821B930B8B
:10030000541710F0CF96089501970895FC01918D30
:10031000828D981761F0828DDF01A80FB11D5D9667
:100320008C91928D9F5F9F73928F90E008958FEFD5
:100330009FEF0895FC01918D828D981731F0828D89
:10034000E80FF11D858D90E008958FEF9FEF0895E0
:10035000FC01918D228D892F90E0805C9F4F821B44
:1003600091098F739927089582E191E00E94A80175
:1003700021E0892B09F420E0822F0895FC01848D6F
:10038000DF01A80FB11DA35ABF4F2C91848D90E0BF
:1003900001968F739927848FA689B7892C93A0899A
:1003A000B1898C91837080648C93938D848D981324
:1003B00006C00288F389E02D80818F7D80830895B7
:1003C000EF92FF920F931F93CF93DF93EC0181E0A5
:1003D000888F9B8D8C8D981305C0E889F989808161
:1003E00085FD26C0F62E0B8D10E00F5F1F4F0F739B
:1003F0001127E02E8C8DE8120CC00FB607FCFACF47
:10040000E889F989808185FFF5CFCE010E94BE0180
:10041000F1CF8B8DFE01E80FF11DE35AFF4FF08203
:100420009FB7F8940B8FEA89FB89808180620AC0AC
:100430009FB7F894EE89FF896083E889F989808104
:100440008370806480839FBF81E090E0DF91CF91D3
:100450001F910F91FF90EF900895CF93DF93EC01E0
:10046000888D8823C9F0EA89FB89808185FD05C0D4
:10047000A889B9898C9186FD0FC00FB607FCF5CF0E
:10048000808185FFF2CFA889B9898C9185FFEDCF56
:10049000CE010E94BE01E7CFDF91CF91089580E0A9
:1004A00090E0892B29F00E94B40181110C94000086
:1004B00008950E94D6041F920F920FB60F92112436
:1004C0002F933F938F939F93AF93BF938091BF01DF
:1004D0009091C001A091C101B091C2013091BE01C3
:1004E00023E0230F2D3720F40196A11DB11D05C077
:1004F00026E8230F0296A11DB11D2093BE01809313
:10050000BF019093C001A093C101B093C20180913B
:10051000BA019091BB01A091BC01B091BD010196BF
:10052000A11DB11D8093BA019093BB01A093BC01A2
:10053000B093BD01BF91AF919F918F913F912F914A
:100540000F900FBE0F901F9018951F920F920FB62D
:100550000F9211242F933F934F935F936F937F9349
:100560008F939F93AF93BF93EF93FF9382E191E0BB
:100570000E94BE01FF91EF91BF91AF919F918F912A
:100580007F916F915F914F913F912F910F900FBE8F
:100590000F901F9018951F920F920FB60F92112473
:1005A0002F938F939F93EF93FF93E0912201F0910C
:1005B00023018081E0912801F091290182FD12C080
:1005C000908180912B018F5F8F7320912C01821776
:1005D00051F0E0912B01F0E0EE5EFE4F958F80939D
:1005E0002B0101C08081FF91EF919F918F912F91FD
:1005F0000F900FBE0F901F901895789484B582606D
:1006000084BD84B5816084BD85B5826085BD85B5B6
:10061000816085BD80916E00816080936E00109234
:1006200081008091810082608093810080918100AF
:100630008160809381008091800081608093800040
:100640008091B10084608093B1008091B00081609E
:100650008093B00080917A00846080937A008091CA
:100660007A00826080937A0080917A008160809322
:100670007A0080917A00806880937A001092C1009D
:1006800061E08BE00E940D0160E08EE00E940D01B0
:1006900061E08EE00E94DE0060E08FE00E940D01CC
:1006A00061E08FE00E94DE0060E080E10E940D01C9
:1006B00061E080E10E94DE0060E081E10E940D01C6
:1006C00061E081E10E94DE0060E082E10E940D01B4
:1006D00061E082E10E94DE0060E083E10E940D01A2
:1006E00061E083E10E94DE0060E087E00E940D018E
:1006F00061E087E00E94DE0060E086E00E940D017C
:1007000061E086E00E94DE0060E083E00E940D016F
:1007100061E083E00E94DE0060E082E00E940D0163
:1007200061E082E00E94DE0060E08AE00E940D014C
:1007300061E08AE00E94DE0060E085E00E940D0139
:1007400061E085E00E94DE0061E085E10E940D012C
:1007500061E085E10E94DE00E0912201F091230139
:1007600082E08083E0911E01F0911F011082E091F0
:100770002001F09121018FEC808310922A01E091F9
:100780002601F091270186E08083E0912401F09119
:100790002501808180618083E0912401F091250111
:1007A000808188608083E0912401F091250180811F
:1007B00080688083E0912401F091250180818F7D04
:1007C00080838BE7E82E8BE1F82E9FE1C92E9DE117
:1007D000D92E2BEDA22E2EE1B22E8EE00E94B50076
:1007E000382E8093B9018FE00E94B500482E809387
:1007F000B80180E10E94B500582E8093B70181E1D5
:100800000E94B500682E8093B60182E10E94B50077
:10081000782E8093B50183E10E94B500882E8093E5
:10082000B40187E00E94B500982E8093B30186E062
:100830000E94B500082F8093B20183E00E94B500AA
:10084000182F8093B10182E00E94B500D82F8093C9
:10085000B0018AE00E94B500C82F8093AF0185E007
:100860000E94B500311006C061E08BE00E94DE00FE
:10087000C50160C0411006C061E08BE00E94DE004F
:10088000C60158C0511006C061E08BE00E94DE0036
:10089000C70150C0611007C061E08BE00E94DE001C
:1008A0008FEE99E147C0711007C061E08BE00E94B4
:1008B000DE008BE798E13EC0811007C061E08BE06D
:1008C0000E94DE008BE197E135C0911007C061E026
:1008D0008BE00E94DE008FEC95E12CC0011107C077
:1008E00061E08BE00E94DE0087E994E123C01111F2
:1008F00007C061E08BE00E94DE008FE693E11AC042
:10090000D11107C061E08BE00E94DE0087E592E133
:1009100011C0C11107C061E08BE00E94DE008FE4CE
:1009200091E108C081110CC061E08BE00E94DE0003
:1009300087E590E10197F1F760E08BE00E94DE002F
:100940000E944F024ACFE2E1F1E01382128288EE68
:1009500093E0A0E0B0E084839583A683B78384E02E
:1009600091E09183808385EC90E09587848784EC87
:1009700090E09787868780EC90E0918B808B81EC6C
:1009800090E0938B828B82EC90E0958B848B86EC4D
:1009900090E0978B868B118E128E138E148E089595
:1009A000EE0FFF1F0590F491E02D099481E090E097
:0A09B000F8940C94DB04F894FFCFD8
:1009BA0000000000E001490177012D02A80186012B
:0209CA009A0190
:00000001FF
