:100000000C9462000C948A000C948A000C948A0070
:100010000C948A000C948A000C948A000C948A0038
:100020000C948A000C948A000C948A000C948A0028
:100030000C948A000C948A000C948A000C948A0018
:100040000C942F030C948A000C949F030C94790356
:100050000C948A000C948A000C948A000C948A00F8
:100060000C948A000C948A000000000024002700F1
:100070002A0000000000250028002B0000000000DE
:1000800023002600290004040404040404040202DA
:100090000202020203030303030301020408102007
:1000A0004080010204081020010204081020000012
:1000B0000008000201000003040700000000000027
:1000C0000000D10311241FBECFEFD8E0DEBFCDBFAB
:1000D00011E0A0E0B1E0E8EAFAE002C005900D927C
:1000E000A831B107D9F721E0A8E1B1E001C01D9224
:1000F000A43DB207E1F710E0C2E6D0E004C02197CA
:10010000FE010E944C05C136D107C9F70E94360492
:100110000C9452050C940000833081F028F4813057
:1001200099F08230A9F008958730A9F08830C9F09D
:100130008430B1F4809180008F7D03C08091800075
:100140008F7780938000089584B58F7784BD08955C
:1001500084B58F7DFBCF8091B0008F778093B00006
:1001600008958091B0008F7DF9CFCF93DF93282F32
:1001700030E0F901E255FF4F8491F901E656FF4F57
:10018000D491F901EA57FF4FC491CC23A1F081111A
:100190000E948C00EC2FF0E0EE0FFF1FE458FF4FA1
:1001A000A591B491EC91ED2381E090E009F480E019
:1001B000DF91CF91089580E090E0FACF1F93CF9325
:1001C000DF93282F30E0F901E255FF4F8491F901C8
:1001D000E656FF4FD491F901EA57FF4FC491CC2363
:1001E000A9F0162F81110E948C00EC2FF0E0EE0F89
:1001F000FF1FEE58FF4FA591B4918FB7F894EC9183
:10020000111108C0D095DE23DC938FBFDF91CF9111
:100210001F910895DE2BF8CFCF93DF9390E0FC0180
:10022000E656FF4F24918A579F4FFC018491882303
:10023000D1F090E0880F991FFC01E859FF4FA5917C
:10024000B491FC01EE58FF4FC591D49161110EC0DD
:100250009FB7F8948C91E22FE0958E238C932881A0
:10026000E223E8839FBFDF91CF9108958FB7F89481
:10027000EC91E22BEC938FBFF6CF3FB7F8948091CF
:100280001D0190911E01A0911F01B091200126B582
:10029000A89B05C02F3F19F00196A11DB11D3FBFBE
:1002A000BA2FA92F982F8827BC01CD01620F711D8D
:1002B000811D911D42E0660F771F881F991F4A9587
:1002C000D1F70895AF92BF92CF92DF92EF92FF9253
:1002D0000F931F93CF93DF936C017B018B01040F6E
:1002E000151FEB015E01AE18BF08C017D10759F00A
:1002F0006991D601ED91FC910190F081E02DC6014C
:100300000995892B79F7C501DF91CF911F910F9145
:10031000FF90EF90DF90CF90BF90AF900895FC01D9
:10032000538D448D252F30E0842F90E0821B930B5A
:10033000541710F0CF96089501970895FC01918D00
:10034000828D981761F0A28DAE0FBF2FB11D5D9603
:100350008C91928D9F5F9F73928F90E008958FEFA5
:100360009FEF0895FC01918D828D981731F0828D59
:10037000E80FF11D858D90E008958FEF9FEF0895B0
:10038000FC01918D228D892F90E0805C9F4F821B14
:1003900091098F739927089581E291E00E94C0012D
:1003A00021E0892B09F420E0822F089580E090E07D
:1003B000892B29F00E94CC0181110C940000089532
:1003C000FC01A48DA80FB92FB11DA35ABF4F2C91CA
:1003D000848D90E001968F739927848FA689B789C1
:1003E0002C93A089B1898C91837080648C93938DB8
:1003F000848D981306C00288F389E02D80818F7D5B
:1004000080830895EF92FF920F931F93CF93DF9312
:10041000EC0181E0888F9B8D8C8D98131AC0E88940
:10042000F989808185FF15C09FB7F894EE89FF890F
:100430006083E889F98980818370806480839FBFAD
:1004400081E090E0DF91CF911F910F91FF90EF90AD
:100450000895F62E0B8D10E00F5F1F4F0F731127BD
:10046000E02E8C8D8E110CC00FB607FCFACFE889F8
:10047000F989808185FFF5CFCE010E94E001F1CF9F
:10048000EB8DEC0FFD2FF11DE35AFF4FF0829FB76C
:10049000F8940B8FEA89FB8980818062CFCFCF935C
:1004A000DF93EC01888D8823B9F0AA89BB89E8899C
:1004B000F9898C9185FD03C0808186FD0DC00FB642
:1004C00007FCF7CF8C9185FFF2CF808185FFEDCFC0
:1004D000CE010E94E001E9CFDF91CF9108950F9303
:1004E0001F93CF93DF93EC018A81882321F061E091
:1004F00088810E940C0160E088810E94DE0083E018
:1005000090E00197F1F761E088810E94DE0083E2CC
:1005100090E00197F1F760E088810E94DE008A8117
:10052000882321F060E088810E940C010E943D0137
:100530006B837C838D839E8389810E94B500892B88
:1005400099F40E943D010B811C812D813E81601B2D
:10055000710B820B930B0F81188529853A8506173D
:1005600017072807390740F70E943D016B837C83FA
:100570008D839E8389810E94B500892B99F00E940A
:100580003D010B811C812D813E81601B710B820B13
:10059000930B0F81188529853A85061717072807B9
:1005A000390740F70E943D012B813C81CB01821B22
:1005B000930BDF91CF911F910F910895FC01019052
:1005C0000020E9F73197AF01481B590BBC0181E2CC
:1005D00091E00C9462018F929F92AF92BF920F9321
:1005E0001F93CF93DF93CDB7DEB7A1970FB6F894E3
:1005F000DEBF0FBECDBF19A2423008F44AE08E0123
:100600000F5D1F4F842E912CB12CA12CA5019401BC
:100610000E942A05E62FB901CA01EA30F4F4E05D30
:10062000D801EE938D01232B242B252B79F790E015
:1006300080E0109719F0CD010E94DE02A1960FB65E
:10064000F894DEBF0FBECDBFDF91CF911F910F9108
:10065000BF90AF909F908F900895E95CE1CF1F927B
:100660000F920FB60F9211242F933F938F939F9366
:10067000AF93BF938091190190911A01A0911B0132
:10068000B0911C013091180123E0230F2D3758F54C
:100690000196A11DB11D209318018093190190931B
:1006A0001A01A0931B01B0931C0180911D01909130
:1006B0001E01A0911F01B09120010196A11DB11D45
:1006C00080931D0190931E01A0931F01B093200100
:1006D000BF91AF919F918F913F912F910F900FBE3E
:1006E0000F901F90189526E8230F0296A11DB11DAB
:1006F000D2CF1F920F920FB60F9211242F933F93D8
:100700004F935F936F937F938F939F93AF93BF9319
:10071000EF93FF9381E291E00E94E001FF91EF915E
:10072000BF91AF919F918F917F916F915F914F9109
:100730003F912F910F900FBE0F901F9018951F9211
:100740000F920FB60F9211242F938F939F93EF93D5
:10075000FF93E0913101F09132018081E091370106
:10076000F091380182FD1BC0908180913A018F5F2A
:100770008F7320913B01821741F0E0913A01F0E044
:10078000EF5DFE4F958F80933A01FF91EF919F911E
:100790008F912F910F900FBE0F901F901895808111
:1007A000F4CFCF92DF92EF92FF92CF93DF93E1E20B
:1007B000F1E01382128288EE93E0A0E0B0E084833F
:1007C0009583A683B78384E091E09183808385EC51
:1007D00090E09587848784EC90E09787868780EC0B
:1007E00090E0918B808B81EC90E0938B828B82ECFC
:1007F00090E0958B848B86EC90E0978B868B118EA6
:10080000128E138E148EC9ECD1E082E0888383E0CF
:1008100089831A8261E082E00E940C0160E0898194
:100820000E940C0180E2C82E8EE4D82EE12CF12C1F
:10083000CF82D886E986FA86CEEBD1E084E0888341
:1008400085E089831A8261E084E00E940C0160E007
:1008500089810E940C01CF82D886E986FA86DF91D1
:10086000CF91FF90EF90DF90CF900895789484B56A
:10087000826084BD84B5816084BD85B5826085BD9C
:1008800085B5816085BD80916E00816080936E002A
:10089000109281008091810082608093810080911C
:1008A00081008160809381008091800081608093CD
:1008B00080008091B10084608093B1008091B0008D
:1008C00081608093B00080917A00846080937A0088
:1008D00080917A00826080937A0080917A008160B2
:1008E00080937A0080917A00806880937A001092D9
:1008F000C10080E49CE9A0E0B0E08093D001909337
:10090000D101A093D201B093D3018093C5019093FC
:10091000C601A093C701B093C801E0913101F091E5
:10092000320182E08083E0912D01F0912E0110824E
:10093000E0912F01F09130018FEC8083109239010A
:10094000E0913501F091360186E08083E09133013A
:10095000F0913401808180618083E0913301F091D6
:100960003401808188608083E0913301F09134010B
:10097000808180688083E0913301F091340180812F
:100980008F7D8083C8E3D0E000E010E089EC91E047
:100990000E946F02BE010E94160590E080E04AE0CE
:1009A0000E94EB0282E191E00E94DE028EEB91E078
:1009B0000E946F02BE010E94160590E080E04AE0AE
:1009C0000E94EB0284E191E00E94DE020E943D0160
:1009D0004B015C018AEFC82ED12CE12CF12C0E9436
:1009E0003D01681979098A099B09683E73408105B0
:1009F0009105A8F321E0C21AD108E108F10888EEB8
:100A0000880E83E0981EA11CB11CC114D104E1041E
:100A1000F10429F70115110509F4B8CF0E94CC01A2
:100A2000882309F4B3CF0E940000B0CFAA1BBB1BE0
:100A300051E107C0AA1FBB1FA617B70710F0A61BDE
:100A4000B70B881F991F5A95A9F780959095BC01FF
:100A5000CD010895A1E21A2EAA1BBB1BFD010DC0FA
:100A6000AA1FBB1FEE1FFF1FA217B307E407F5075E
:100A700020F0A21BB30BE40BF50B661F771F881F3A
:100A8000991F1A9469F760957095809590959B01D0
:100A9000AC01BD01CF010895EE0FFF1F0590F49149
:080AA000E02D0994F894FFCF4A
:100AA80000000000020262018F014F02C0019E0196
:080AB800B20120000D0A00004C
:00000001FF
