:100000000C9462000C948A000C948A000C948A0070
:100010000C948A000C948A000C948A000C948A0038
:100020000C948A000C948A000C948A000C948A0028
:100030000C948A000C948A000C948A000C948A0018
:100040000C9496060C948A000C9406070C94E00617
:100050000C948A000C948A000C948A000C948A00F8
:100060000C948A000C948A000000000024002700F1
:100070002A0000000000250028002B0000000008D6
:10008000000201000003040700000000000000005F
:1000900000000000230026002900040404040404D6
:1000A0000404020202020202030303030303010227
:1000B00004081020408001020408102001020408F6
:1000C0001020380711241FBECFEFD8E0DEBFCDBF10
:1000D00011E0A0E0B1E0ECE6FCE102C005900D9279
:1000E000AA36B107D9F722E0AAE6B1E001C01D9215
:1000F000AA33B207E1F710E0C2E6D0E004C02197CE
:10010000FE010E94920BC136D107C9F70E94FB077E
:100110000C94340E0C940000CF92DF92EF92FF9279
:10012000CF93DF93B0912E02882311F0AB2F01C043
:10013000A0E080912F0290E0880F991F80579F4F79
:10014000C0903402D0903502E0903602F090370231
:1001500020E030E0FC01C591D491E881EB23A901B6
:1001600060E070E0EA130CC02F5F3F4F4C155D0557
:100170006E057F0578F33FEF2FEF8FEF9FEF03C002
:10018000322F252FCB01632F722FDF91CF91FF905C
:10019000EF90DF90CF900895FC01538D448D252F73
:1001A00030E0842F90E0821B930B541710F0CF9611
:1001B000089501970895FC01918D828D981761F043
:1001C000828DDF01A80FB11D5D968C91928D9F5F8E
:1001D0009F73928F90E008958FEF9FEF0895FC0139
:1001E000918D828D981731F0828DE80FF11D858DEC
:1001F00090E008958FEF9FEF0895FC01918D228D7F
:10020000892F90E0805C9F4F821B91098F73992703
:100210000895FC01848DDF01A80FB11DA35ABF4FC3
:100220002C91848D90E001968F739927848FA689F5
:10023000B7892C93A089B1898C91837080648C9349
:10024000938D848D981306C00288F389E02D8081F8
:100250008F7D80830895EF92FF920F931F93CF932A
:10026000DF93EC0181E0888F9B8D8C8D981305C006
:10027000E889F989808185FD26C0F62E0B8D10E076
:100280000F5F1F4F0F731127E02E8C8DE8120CC0EB
:100290000FB607FCFACFE889F989808185FFF5CF91
:1002A000CE010E940901F1CF8B8DFE01E80FF11DF7
:1002B000E35AFF4FF0829FB7F8940B8FEA89FB89CE
:1002C000808180620AC09FB7F894EE89FF896083BD
:1002D000E889F98980818370806480839FBF81E091
:1002E00090E0DF91CF911F910F91FF90EF900895D3
:1002F000CF93DF93EC01888D8823C9F0EA89FB89CD
:10030000808185FD05C0A889B9898C9186FD0FC0C3
:100310000FB607FCF5CF808185FFF2CFA889B98998
:100320008C9185FFEDCFCE010E940901E7CFDF91CF
:10033000CF91089583E791E00E94FD0021E0892B91
:1003400009F420E0822F089580E090E0892B29F0C5
:100350000E949A0181110C940000089590E0FC0124
:10036000E458FF4F2491FC01E255FF4F3491FC010A
:10037000E656FF4FE491EE2309F43CC0222339F105
:10038000233091F038F42130A9F0223001F584B502
:100390008F7D12C0273091F02830A1F02430B9F4BD
:1003A000809180008F7D03C0809180008F77809343
:1003B00080000DC084B58F7784BD09C08091B000E6
:1003C0008F7703C08091B0008F7D8093B000F0E004
:1003D000EE0FFF1FEE58FF4FA591B4919FB7F89411
:1003E000611104C08C913095382302C0EC913E2BF2
:1003F0003C939FBF0895AF92BF92CF92DF92EF924E
:10040000FF920F931F93CF93DF938C015C018EE0DB
:10041000A80EB11CC42ED12CC0E0D0E0E62EF12CE9
:10042000CC15DD0579F0B7010C2E02C075956795E6
:100430000A94E2F76170F50181915F010E94AE01BB
:100440002196EECF61E0F80185850E94AE0160E063
:10045000F8018585DF91CF911F910F91FF90EF906B
:10046000DF90CF90BF90AF900C94AE01CF93DF930D
:1004700090E0FC01E255FF4F2491FC01E656FF4F4E
:100480008491882361F190E0880F991FFC01E8595D
:10049000FF4FC591D491FC01EE58FF4FA591B49147
:1004A000611109C09FB7F8948881209582238883C1
:1004B000EC912E230BC0623061F49FB7F8948881D1
:1004C000322F309583238883EC912E2B2C939FBF62
:1004D00006C08FB7F894E8812E2B28838FBFDF9159
:1004E000CF9108953FB7F89480916B0190916C0182
:1004F000A0916D01B0916E0126B5A89B05C02F3F5C
:1005000019F00196A11DB11D3FBFBA2FA92F982F39
:100510008827820F911DA11DB11DBC01CD0142E0B4
:10052000660F771F881F991F4A95D1F708958F92FC
:100530009F92AF92BF92CF92DF92EF92FF926B01A8
:100540007C010E9472024B015C01C114D104E104E0
:10055000F104F1F00E947202DC01CB0188199909C3
:10056000AA09BB09883E9340A105B10570F321E0BB
:10057000C21AD108E108F10888EE880E83E0981EBF
:10058000A11CB11CC114D104E104F10419F7DDCFA1
:10059000FF90EF90DF90CF90BF90AF909F908F90A3
:1005A0000895CF92DF92EF92FF920F931F93CF9314
:1005B000DF93CDB7DEB7C054D1400FB6F894DEBF9D
:1005C0000FBECDBF2FB7F89480916F01909170014D
:1005D000A0917101B09172012FBF409130025091F2
:1005E000310260913202709133028C019D01041B33
:1005F000150B260B370BB901A801403D574061058B
:10060000710518F480913802CAC08093300290932B
:100610003102A0933202B093330210922B02109257
:100620002A0210922902109228021092270262E0F8
:1006300080912C020E94360261E070E080E090E040
:100640000E94970261E080912C020E94360260E0D5
:1006500080912C020E94AE0180912D028551823042
:1006600028F48BE291E10197F1F706C064E170E0B4
:1006700080E090E00E94970262E080912C020E944C
:1006800036028091390290E08230910538F0880F6F
:10069000991F880F991F05970197F1F7F89480E04B
:1006A0000E948C006F3F7F4F8F4F9F4F21F410921D
:1006B0003802789441C081E00E948C006F3F7F4FE8
:1006C0008F4F9F4FA1F38E010F5F1F4F6E018FEB76
:1006D000C81A8EEFD80A780180E00E948C00F701DA
:1006E000608371838283938381E00E948C00F70191
:1006F0006483758386839783F8E0EF0EF11CEC1416
:10070000FD0451F7789420E030E0F801C080D180FA
:10071000E280F3804481558166817781FFEFCF16B7
:10072000DF06EF06FF0631F04F3F8FEF58076807EF
:10073000780721F41092380280E031C0F90183E09B
:10074000F595E7958A95E1F7E95DFD4F8081880F82
:10075000C416D506E606F70608F4816080832F5F8D
:100760003F4F085F1F4F2832310579F620912B0249
:1007700030E0409127028091280290E0840F911D83
:1007800040912902840F911D40912A02840F911DEE
:1007900099272817390771F681E080933802C05CE9
:1007A000DE4F0FB6F894DEBF0FBECDBFDF91CF9105
:1007B0001F910F91FF90EF90DF90CF900895CF920F
:1007C000DF92EF92FF920F931F93CF93DF936C0111
:1007D0007A018B01C0E0D0E0CE15DF0581F0D801B1
:1007E0006D918D01D601ED91FC910190F081E02D8C
:1007F000C6010995892B11F02196EECF7E01C70124
:10080000DF91CF911F910F91FF90EF90DF90CF90EC
:100810000895FC0186898F3F79F021853285662312
:1008200019F0232B31F403C02130310511F461E0BC
:1008300001C060E00C94AE010895EF92FF921F9307
:10084000CF93DF93EC01162F7A0161E0812F0E9494
:1008500036021E8BFA86E986E881F9810484F585E3
:10086000E02D60E0CE01DF91CF911F91FF90EF90DE
:1008700009940F931F93CF93DF93EC01162F042F4E
:1008800061E0413009F060E08B850E94AE018C850B
:100890008F3F19F060E00E94AE01023081F08C8140
:1008A00084FF02C048E00CC0612F70E084E07595C1
:1008B00067958A95E1F744E0CE010E94FB0144E090
:1008C000612FCE01DF91CF911F910F910C94FB010D
:1008D000DC01ED91FC910684F785E02D41E009955E
:1008E00081E090E00895DC01ED91FC910684F785AC
:1008F000E02D40E00994CF93DF93CDB7DEB7289782
:100900000FB6F894DEBF0FBECDBF8091000190916D
:100910000101A0910201B09103018D839E83AF83F9
:10092000B8878091040190910501A0910601B091D2
:10093000070189839A83AB83BC83209117022230FD
:1009400018F48FEF820F01C081E03091180290E01F
:10095000FE01E80FF91F303121F4243011F46181D8
:1009600001C06581606880E192E028960FB6F89436
:10097000DEBF0FBECDBFDF91CF910C9473040F93F8
:100980001F93CF93DF93EC01423018F08C81886085
:100990008C834F836887222329F0413019F48C819E
:1009A00084608C8364E670E080E090E00E949702AF
:1009B0006C8164FD31C0E881F9810684F785E02D02
:1009C00042E063E0CE0109958BE496E40197F1F7EC
:1009D000E881F9810684F785E02D42E063E0CE01ED
:1009E000099503E512E0C8010197F1F7E881F98163
:1009F0000684F785E02D42E063E0CE010995C80149
:100A00000197F1F7E881F9810684F785E02D42E04E
:100A100062E0CE01099517C06062CE010E947304A6
:100A20008BE496E40197F1F76C816062CE010E943D
:100A3000730403E512E0C8010197F1F76C8160626D
:100A4000CE010E947304C8010197F1F76C816062C6
:100A5000CE010E9473048BEE90E00197F1F784E0E1
:100A60008D836CE0CE010E94730461E0CE010E9490
:100A700073048BE39FE10197F1F782E08E8366E0D8
:100A8000CE010E947304E881F9810484F585E02D8C
:100A90006FEFCE01DF91CF911F910F9109940895CF
:100AA0000895089580E090E008950E942F0E61154A
:100AB000710579F0FB0101900020E9F73197AF0152
:100AC000461B570BDC01ED91FC910280F381E02D78
:100AD000099480E090E008952F923F924F925F92A8
:100AE0006F927F928F929F92AF92BF92CF92DF923E
:100AF000EF92FF920F931F93CF93DF93CDB7DEB7A3
:100B0000A2970FB6F894DEBF0FBECDBF8C014A018D
:100B10005B01D22E9A01AB01C501B4010E94150EF2
:100B2000882319F06EE271E027C024013501E894B2
:100B300077F82FEF3FEF4FE75FE7C301B2010E9465
:100B4000150E81110DC02FEF3FEF4FE75FE7C30197
:100B5000B2010E94050C18161CF462E371E00CC08F
:100B60002FEF3FEF4FE75FE4C501B4010E945D0D39
:100B7000181634F466E371E0C8010E945705BDC041
:100B80002FEF3FEF4FE75FECC501B4010E94050C6A
:100B900087FDF0CF20E030E0A901C501B4010E943B
:100BA000050C87FF0FC0D801ED91FC910190F081F9
:100BB000E02D6DE2C80109951C01B7FAB094B7F8B1
:100BC000B09402C0212C312CF12C60E070E080E068
:100BD0009FE3DF1441F020E030E040E251E40E9466
:100BE0000A0CF394F6CFA50194010E94990B4B01D6
:100BF0005C010E947C0C562E672E782EC92E19A2FD
:100C0000262F372F482F592F7E01B1E2EB0EF11C12
:100C1000EAA24F2CCA01B9012AE030E040E050E0DE
:100C20000E94700B605DF70162937F012115310511
:100C30004105510579F7BF01C8010E9457057101AF
:100C4000E80EF91EDD2009F457C0652D762D872D9D
:100C50009C2D0E94AB0C9B01AC01C501B4010E940C
:100C6000980B4B015C01D801ED91FC910190F08152
:100C7000E02D6EE2C8010995E80EF91E20E030E093
:100C800040E251E4C501B4010E94620D4B015C01D8
:100C90000E947C0C9B0140E050E019A22AA0342C59
:100CA000562E632E742EC52ECA01B9012AE030E0FB
:100CB00040E050E00E94700B605DF10162931F0103
:100CC000211531054105510579F7BF01C8010E9481
:100CD0005705E80EF91E652D762D872D9C2D0E9457
:100CE000AB0C9B01AC01C501B4010E94980B4B01F8
:100CF0005C01DA94D110C2CFC701A2960FB6F89466
:100D0000DEBF0FBECDBFDF91CF911F910F91FF903E
:100D1000EF90DF90CF90BF90AF909F908F907F909B
:100D20006F905F904F903F902F9008951F920F9279
:100D30000FB60F9211242F933F938F939F93AF93EE
:100D4000BF9380916F0190917001A0917101B0915A
:100D5000720130916A0123E0230F2D3720F40196B0
:100D6000A11DB11D05C026E8230F0296A11DB11DCE
:100D700020936A0180936F0190937001A093710199
:100D8000B093720180916B0190916C01A0916D0103
:100D9000B0916E010196A11DB11D80936B019093DE
:100DA0006C01A0936D01B0936E01BF91AF919F91C3
:100DB0008F913F912F910F900FBE0F901F9018951C
:100DC0001F920F920FB60F9211242F933F934F93C0
:100DD0005F936F937F938F939F93AF93BF93EF93A3
:100DE000FF9383E791E00E940901FF91EF91BF918A
:100DF000AF919F918F917F916F915F914F913F91B3
:100E00002F910F900FBE0F901F9018951F920F9269
:100E10000FB60F9211242F938F939F93EF93FF930D
:100E2000E0918301F09184018081E0918901F0914A
:100E30008A0182FD12C0908180918C018F5F8F7337
:100E400020918D01821751F0E0918C01F0E0ED5876
:100E5000FE4F958F80938C0101C08081FF91EF91AF
:100E60009F918F912F910F900FBE0F901F9018950B
:100E70000F931F93CF93DF93109276011092750119
:100E800088EE93E0A0E0B0E0809377019093780142
:100E9000A0937901B0937A018CE091E09093740172
:100EA0008093730185EC90E09093800180937F01A3
:100EB00084EC90E0909382018093810180EC90E03B
:100EC000909384018093830181EC90E0909386015C
:100ED0008093850182EC90E0909388018093870154
:100EE00086EC90E090938A018093890110928C01A6
:100EF00010928D0110928E0110928F018EE08093DE
:100F00002C028BE080932D02ECEBF0E0E491E09377
:100F10002E02E8EAF0E0E491E0932F0240E85EE37D
:100F200060E070E0409334025093350260933602E3
:100F30007093370210921302109212022EE131E0E8
:100F400030931102209310029CE090931B029FEFBC
:100F500090931C0280931D0286E080931E0285E020
:100F600080931F0284E08093200283E0809321021B
:100F70001092220210922302109224021092250253
:100F8000CEE1D2E002E212E061E089910E943602F5
:100F90000C171D07C9F761E080911B020E94360201
:100FA00080911C028F3F19F061E00E94360261E0DF
:100FB00080911D020E9436021092140260E080911E
:100FC0001B020E94AE0160E080911D020E94AE01F2
:100FD00080911C028F3F19F060E00E94AE018FEFFC
:100FE0008093260210921A0210921902DF91CF917B
:100FF0001F910F910895CF93DF93CDB7DEB72C9754
:101000000FB6F894DEBF0FBECDBF789484B5826072
:1010100084BD84B5816084BD85B5826085BD85B59C
:10102000816085BD80916E00816080936E0010921A
:101030008100809181008260809381008091810095
:101040008160809381008091800081608093800026
:101050008091B10084608093B1008091B000816084
:101060008093B00080917A00846080937A008091B0
:101070007A00826080937A0080917A008160809308
:101080007A0080917A00806880937A001092C10083
:1010900061E080E10E94360261E08FE00E9436024A
:1010A00060E080E10E94AE0161E08FE00E94AE014D
:1010B00020E042E060E180E192E00E94BF0462E053
:1010C00080912C020E9436022FB7F89480916F0114
:1010D00090917001A0917101B09172012FBF805D5C
:1010E0009740A109B1098093300290933102A093F7
:1010F0003202B093330287E3809339026AE371E0EE
:1011000080E192E00E9457050E947B046AE471E04E
:1011100080E192E00E94570560ED77E080E090E08A
:101120000E9497020E94D1028823D1F180912D0262
:101130008B30B0F18D30A8F08551823088F5609108
:1011400027027091280276276727762780E090E0B3
:101150000E94AB0C2DEC3CEC4CEC5DE30E94620D6C
:101160001CC06091280270E080E090E00E94AD0C0D
:101170002DEC3CEC4CEC5DE30E94620D6B017C01BC
:101180006091270270E080E090E00E94AD0C9B012E
:10119000AC01C701B6010E94990B2B013C0106C0AE
:1011A000412C512C90EC692E9FE7792E0E94D102A0
:1011B000882309F477C080912D028C3009F44AC04D
:1011C00018F48B30D1F06EC08551823008F06AC0BF
:1011D00010912902612F6F7770E0762F662780913A
:1011E0002A02682B80E090E00E94AB0C2DEC3CECD6
:1011F0004CEC5DE30E94620D4BC06091290270E0EF
:1012000080E090E00E94AB0C6B017C0110912A02FF
:1012100017FF0AC09B01AC0160E070E080E89FEB23
:101220000E94980B6B017C01612F6F7070E080E071
:1012300090E00E94AD0C2DEC3CEC4CEC5DE30E9488
:10124000620DA70196010E94990B69837A838B83B3
:101250009C8330C01091290260912A026F7070E067
:1012600080E090E00E94AD0C2DEC3CEC4CEC5DE39A
:101270000E94620D6B017C01612F70E080E090E0C4
:101280000E94AB0C9B01AC01C701B6010E94990BF7
:1012900069837A838B839C8317FF0CC0DC01CB01AD
:1012A000B05804C080E090E0A0ECBFE789839A8347
:1012B000AB83BC8326E636E646EE5FE369817A813E
:1012C0008B819C810E94620D20E030E040E052E47E
:1012D0000E94990B6B017C0120E030E048E852E469
:1012E0000E94980B2AE939E949E95FE30E94620DFF
:1012F0004B015C0120E030E044E752E4C701B60155
:101300000E94990B9B01AC01C501B4010E94990B8D
:101310004B015C0122E133E840EC5DE3C301B20123
:101320000E94620D9B01AC01C501B4010E94990BA2
:1013300020E030E040E05FE30E94620D4B015C0181
:1013400020E030E04EE952E40E945D0D18160CF0EA
:1013500069C1A7019601C701B6010E94620D6D83A4
:101360007E838F839887A3019201C301B2010E94FB
:10137000620D69877A878B879C8721E133E243E09E
:1013800050E4C701B6010E94620D29E134E849E248
:1013900052E40E94980B4B015C0126E13BE442E2DF
:1013A00051E4C301B2010E94620D9B01AC01C50171
:1013B000B4010E94990B4B015C0128E436E246E639
:1013C0005EEBC701B6010E94620DA30192010E946B
:1013D000620D9B01AC01C501B4010E94990B4B0148
:1013E0005C0120EE3FE040EE5BEB6D817E818F8102
:1013F00098850E94620D9B01AC01C501B4010E9459
:10140000990B4B015C0128EF37E840E65DEB6985FD
:101410007A858B859C850E94620D9B01AC01C5017C
:10142000B4010E94990B4B015C012CEA3DE041EABA
:101430005AE36D817E818F8198850E94620DA301A0
:1014400092010E94620D9B01AC01C501B4010E9492
:10145000990B4B015C0128EC3FE84FE55AE3C701CB
:10146000B6010E94620D29853A854B855C850E94F4
:10147000620D9B01AC01C501B4010E94990B4B01A7
:101480005C0121EF3BE845E056EB6D817E818F8169
:1014900098850E94620D29853A854B855C850E945E
:1014A000620D9B01AC01C501B4010E94990B4B0177
:1014B0005C0120E030E040E551E4C301B2010E944C
:1014C000050C87FF60C020E030E040EA52E4C7012D
:1014D000B6010E945D0D87FD56C020E030E040EE71
:1014E00052E4C701B6010E94050C18160CF4ECC0BA
:1014F000A301920160E070E080E591E40E94980B06
:1015000020E030E040E85EE30E94620D6D837E8360
:101510008F83988720E030E04EEB52E4C701B6019C
:101520000E94980B6B017C0120E030E0A9010E9431
:101530005D0D18164CF4A701960160E070E088E894
:1015400091E40E94980B08C020E030E048E851E4A4
:10155000C701B6010E94990B2EE33DEE40E75DE323
:101560000E94620D0E94D50D9B01AC016D817E81B0
:101570008F8198850E94620D9B01AC01C501B40169
:101580000E94980B4DC020E030E04AEA52E4C301CB
:10159000B2010E945D0D18160CF044C020E030E04E
:1015A00040EA52E4C701B6010E945D0D87FD3AC0D2
:1015B00020E030E04EEA52E4C701B6010E94050C7B
:1015C000181684F120E030E04AEA52E4C301B20187
:1015D0000E94980B2DEC3CEC4CEC5DE30E94620DFC
:1015E0006D837E838F839887A701960160E070E00A
:1015F0008EEA92E40E94980B2DEC3CEC4CE45EE306
:101600000E94620D9B01AC016D817E818F81988566
:101610000E94620D9B01AC01C501B4010E94990BAF
:101620004B015C0161E080E192E00E9473048BE376
:101630009FE10197F1F76AE571E080E192E00E9495
:10164000570522E049815A816B817C8180E192E0DB
:101650000E946C056EE571E080E192E00E94570502
:1016600022E0B301A20180E192E00E946C050E9499
:101670007B0463E671E080E192E00E94570520E080
:1016800030E040E052E4C501B4010E94980B26E826
:1016900038E34EE05FE30E94620DAB01BC0122E043
:1016A00080E192E00E946C0522E0B301A20183E791
:1016B00091E00E946C0567E671E083E791E00E948B
:1016C00057050E94A40128CD20E030E04AEA52E408
:1016D000C301B2010E945D0D18160CF469CFA2CFB0
:1016E000A1E21A2EAA1BBB1BFD010DC0AA1FBB1F26
:1016F000EE1FFF1FA217B307E407F50720F0A21B98
:10170000B30BE40BF50B661F771F881F991F1A9404
:1017100069F760957095809590959B01AC01BD012E
:10172000CF010895EE0FFF1F0590F491E02D09946D
:101730005058BB27AA270E94B00B0C94230D0E947F
:10174000150D38F00E941C0D20F039F49F3F19F45C
:1017500026F40C94120D0EF4E095E7FB0C940C0D9E
:10176000E92F0E94340D58F3BA17620773078407F4
:10177000950720F079F4A6F50C94560D0EF4E0953B
:101780000B2EBA2FA02D0B01B90190010C01CA013B
:10179000A0011124FF27591B99F0593F50F4503EE6
:1017A00068F11A16F040A22F232F342F4427585FD8
:1017B000F3CF469537952795A795F0405395C9F7F0
:1017C0007EF41F16BA0B620B730B840BBAF09150A8
:1017D000A1F0FF0FBB1F661F771F881FC2F70EC047
:1017E000BA0F621F731F841F48F48795779567951A
:1017F000B795F7959E3F08F0B0CF9395880F08F006
:101800009927EE0F9795879508950E94E80C08F4A4
:1018100081E008950E941E0C0C94230D0E941C0D63
:1018200058F00E94150D40F029F45F3F29F00C9408
:101830000C0D51110C94570D0C94120D0E94340D87
:1018400068F39923B1F3552391F3951B550BBB27EF
:10185000AA2762177307840738F09F5F5F4F220F34
:10186000331F441FAA1FA9F335D00E2E3AF0E0E82B
:1018700032D091505040E695001CCAF72BD0FE2F75
:1018800029D0660F771F881FBB1F26173707480709
:10189000AB07B0E809F0BB0B802DBF01FF279358C1
:1018A0005F4F3AF09E3F510578F00C940C0D0C946C
:1018B000570D5F3FE4F3983ED4F38695779567958F
:1018C000B795F7959F5FC9F7880F911D96958795F6
:1018D00097F90895E1E0660F771F881FBB1F621715
:1018E00073078407BA0720F0621B730B840BBA0BD3
:1018F000EE1F88F7E09508950E943C0D88F09F57F1
:1019000098F0B92F9927B751B0F0E1F0660F771F23
:10191000881F991F1AF0BA95C9F714C0B13091F019
:101920000E94560DB1E008950C94560D672F782F44
:101930008827B85F39F0B93FCCF3869577956795DE
:10194000B395D9F73EF490958095709561957F4F4A
:101950008F4F9F4F0895E89409C097FB3EF49095F0
:101960008095709561957F4F8F4F9F4F9923A9F078
:10197000F92F96E9BB279395F69587957795679507
:10198000B795F111F8CFFAF4BB0F11F460FF1BC04B
:101990006F5F7F4F8F4F9F4F16C0882311F096E9DE
:1019A00011C0772321F09EE8872F762F05C066238C
:1019B00071F096E8862F70E060E02AF09A95660F45
:1019C000771F881FDAF7880F9695879597F90895FE
:1019D000990F0008550FAA0BE0E8FEEF1616170640
:1019E000E807F907C0F012161306E407F50798F0A8
:1019F000621B730B840B950B39F40A2661F0232BC1
:101A0000242B252B21F408950A2609F4A140A6953C
:101A10008FEF811D811D089597F99F6780E870E021
:101A200060E008959FEF80EC089500240A94161654
:101A3000170618060906089500240A9412161306BC
:101A4000140605060895092E0394000C11F488234A
:101A500052F0BB0F40F4BF2B11F460FF04C06F5F66
:101A60007F4F8F4F9F4F089557FD9058440F551F3C
:101A700059F05F3F71F04795880F97FB991F61F010
:101A80009F3F79F087950895121613061406551F87
:101A9000F2CF4695F1DF08C0161617061806991FF3
:101AA000F1CF86957105610508940895E894BB27E8
:101AB00066277727CB0197F908950E94E80C08F470
:101AC0008FEF08950E94750D0C94230D0E94150D43
:101AD00038F00E941C0D20F0952311F00C940C0D91
:101AE0000C94120D11240C94570D0E94340D70F3B8
:101AF000959FC1F3950F50E0551F629FF001729FB3
:101B0000BB27F00DB11D639FAA27F00DB11DAA1FC1
:101B1000649F6627B00DA11D661F829F2227B00D0E
:101B2000A11D621F739FB00DA11D621F839FA00D99
:101B3000611D221F749F3327A00D611D231F849FE9
:101B4000600D211D822F762F6A2F11249F57504040
:101B50009AF0F1F088234AF0EE0FFF1FBB1F661FBB
:101B6000771F881F91505040A9F79E3F510580F084
:101B70000C940C0D0C94570D5F3FE4F3983ED4F396
:101B8000869577956795B795F795E7959F5FC1F728
:101B9000FE2B880F911D9695879597F9089519F456
:101BA00016F40C94120D0C941A0E0E943C0DB8F30E
:101BB0009923C9F3B6F39F57550B87FF0E94280E50
:101BC0000024A0E640EA900180585695979528F4A5
:101BD000805C660F771F881F20F02617370748079D
:101BE00030F4621B730B840B202931294A2BA695F4
:101BF00017940794202531254A2758F7660F771F39
:101C0000881F20F026173707480730F4620B730B44
:101C1000840B200D311D411DA09581F7B901842F42
:101C20009158880F9695879508950E94E80C880B27
:101C3000990B08959F3F31F0915020F48795779547
:101C40006795B795880F911D9695879597F9089593
:101C500091505040660F771F881FD2F7089581E09A
:0C1C600090E0F8940C94340EF894FFCF40
:101C6C000040145400401050000000002B01DF0312
:101C7C00CC007801FD00DB00EF00000000006804E0
:101C8C00DF0352055105BF041D04090439046E61BC
:101C9C006E00696E66006F76660054656D706572D5
:101CAC00617475726520616E640068756D69646934
:101CBC0074792073656E736F7200543A200020485B
:0A1CCC003A2000493A20000D0A00FA
:00000001FF
