:100000000C9462000C948A000C948A000C948A0070
:100010000C948A000C948A000C948A000C948A0038
:100020000C948A000C948A000C948A000C947C0432
:100030000C948A000C948A000C948A000C948A0018
:100040000C94DA030C948A000C944A040C94240453
:100050000C948A000C948A000C948A000C948A00F8
:100060000C948A000C948A000000000024002700F1
:100070002A0000000000250028002B0000000000DE
:1000800023002600290004040404040404040202DA
:100090000202020203030303030301020408102007
:1000A0004080010204081020010204081020000012
:1000B0000008000201000003040700000000000027
:1000C0000000380511241FBECFEFD8E0DEBFCDBF42
:1000D00011E0A0E0B1E0E2E3FFE002C005900D9284
:1000E000A631B107D9F721E0A6E1B1E001C01D9228
:1000F000A63FB207E1F710E0C2E6D0E004C02197C6
:10010000FE010E949107C136D107C9F70E94B205CE
:100110000C9497070C940000CF92DF92EF92FF921D
:10012000DC01A03282E0B807D4F5A53BB10514F09C
:10013000A4EBB0E04091E90128E830E0241B31094C
:1001400047FD3395220F331F220F331F6901330FF1
:10015000EE08FF084091EA0128E532E0241B31094E
:1001600047FD3395220F331F220F331F032E000C40
:10017000440B550B2C193D094E095F09B7FF02C00E
:10018000B0E0A0E00E94380724EB30E040E050E00F
:100190000E940E07C20ED31EE41EF51ED601E0918A
:1001A000E801EC3080F52091E90188E890E0821BBD
:1001B000910927FD9395880F991F880F991FA817FC
:1001C000B90784F02091EA0188E592E0821B910949
:1001D00027FD9395880F991F880F991FA817B907B6
:1001E0000CF4CD010297880F991F4FB7F8942E2F6A
:1001F00030E0F901EE0FFF1FE20FF31FED53FE4F4A
:10020000928381834FBFFF90EF90DF90CF9008954E
:10021000833081F028F4813099F08230A9F008957C
:100220008730A9F08830C9F08430B1F48091800023
:100230008F7D03C0809180008F7780938000089528
:1002400084B58F7784BD089584B58F7DFBCF809171
:10025000B0008F778093B00008958091B0008F7DBB
:10026000F9CFCF93DF93282F30E0F901E255FF4F0C
:100270008491F901E656FF4FD491F901EA57FF4FF7
:10028000C491CC23A1F081110E940801EC2FF0E071
:10029000EE0FFF1FE458FF4FA591B491EC91ED23B1
:1002A00081E090E009F480E0DF91CF91089580E053
:1002B00090E0FACF1F93CF93DF93282F30E0F9011E
:1002C000E255FF4F8491F901E656FF4FD491F901B1
:1002D000EA57FF4FC491CC23A9F0162F81110E9439
:1002E0000801EC2FF0E0EE0FFF1FEE58FF4FA59135
:1002F000B4918FB7F894EC91111108C0D095DE231A
:10030000DC938FBFDF91CF911F910895DE2BF8CF43
:10031000CF93DF9390E0FC01E656FF4F24918A577C
:100320009F4FFC0184918823D1F090E0880F991FA2
:10033000FC01E859FF4FA591B491FC01EE58FF4F25
:10034000C591D49161110EC09FB7F8948C91E22FA2
:10035000E0958E238C932881E223E8839FBFDF9171
:10036000CF9108958FB7F894EC91E22BEC938FBF67
:10037000F6CF3FB7F8948091220190912301A0918C
:100380002401B091250126B5A89B05C02F3F19F087
:100390000196A11DB11D3FBFBA2FA92F982F882705
:1003A000BC01CD01620F711D811D911D42E0660FE0
:1003B000771F881F991F4A95D1F708950F931F93B0
:1003C0008091ED01882329F061E08091EB010E948A
:1003D000880160E08091EB010E945A0183E090E087
:1003E0000197F1F761E08091EB010E945A0183E2ED
:1003F00090E00197F1F760E08091EB010E945A01D3
:100400008091ED01882329F060E08091EB010E944A
:1004100088010E94B9016093EE017093EF0180930F
:10042000F0019093F1018091EC010E943101892B40
:10043000D9F40E94B9010091EE011091EF012091D1
:10044000F0013091F101601B710B820B930B009155
:10045000F2011091F3012091F4013091F50106179A
:10046000170728073907F8F60E94B9016093EE01D3
:100470007093EF018093F0019093F1018091EC0172
:100480000E943101892BD9F00E94B9010091EE013F
:100490001091EF012091F0013091F101601B710B7F
:1004A000820B930B0091F2011091F3012091F40162
:1004B0003091F5010617170728073907F8F60E944B
:1004C000B9012091EE013091EF01CB01821B930B1A
:1004D0001F910F9108952FB7F89460911E017091AC
:1004E0001F0180912001909121012FBF0895AF92AB
:1004F000BF92CF92DF92EF92FF920F931F93CF9311
:10050000DF936C017B018B01040F151FEB015E0172
:10051000AE18BF08C017D10759F06991D601ED9107
:10052000FC910190F081E02DC6010995892B79F7A6
:10053000C501DF91CF911F910F91FF90EF90DF9058
:10054000CF90BF90AF900895FC01538D448D252F1F
:1005500030E0842F90E0821B930B541710F0CF965D
:10056000089501970895FC01918D828D981761F08F
:10057000A28DAE0FBF2FB11D5D968C91928D9F5FA6
:100580009F73928F90E008958FEF9FEF0895FC0185
:10059000918D828D981731F0828DE80FF11D858D38
:1005A00090E008958FEF9FEF0895FC01918D228DCB
:1005B000892F90E0805C9F4F821B91098F73992750
:1005C000089586E291E00E94D50221E0892B09F48A
:1005D00020E0822F089580E090E0892B29F00E948E
:1005E000E10281110C9400000895FC01A48DA80F74
:1005F000B92FB11DA35ABF4F2C91848D90E0019665
:100600008F739927848FA689B7892C93A089B18984
:100610008C91837080648C93938D848D981306C025
:100620000288F389E02D80818F7D80830895EF9289
:10063000FF920F931F93CF93DF93EC0181E0888F9C
:100640009B8D8C8D98131AC0E889F989808185FF6C
:1006500015C09FB7F894EE89FF896083E889F9890E
:1006600080818370806480839FBF81E090E0DF9110
:10067000CF911F910F91FF90EF900895F62E0B8D63
:1006800010E00F5F1F4F0F731127E02E8C8D8E111E
:100690000CC00FB607FCFACFE889F989808185FF85
:1006A000F5CFCE010E94F502F1CFEB8DEC0FFD2FBF
:1006B000F11DE35AFF4FF0829FB7F8940B8FEA8940
:1006C000FB8980818062CFCFCF93DF93EC01888D4F
:1006D0008823B9F0AA89BB89E889F9898C9185FDBD
:1006E00003C0808186FD0DC00FB607FCF7CF8C914B
:1006F00085FFF2CF808185FFEDCFCE010E94F5020C
:10070000E9CFDF91CF9108958F929F92AF92BF92E0
:100710000F931F93CF93DF93CDB7DEB7A1970FB69B
:10072000F894DEBF0FBECDBF19A2423008F44AE0F4
:100730008E010F5D1F4F842E912CB12CA12CA50191
:1007400094010E944007E62FB901CA01EA3044F53E
:10075000E05DD801EE938D01232B242B252B79F717
:1007600090E080E0109769F0FD0101900020E9F72A
:100770003197AF014A1B5B0BBD0186E291E00E94FD
:100780007702A1960FB6F894DEBF0FBECDBFDF9102
:10079000CF911F910F91BF90AF909F908F90089530
:1007A000E95CD7CF42E050E062E171E086E291E09F
:1007B0000C9477021F920F920FB60F9211242F9371
:1007C0003F938F939F93AF93BF9380911E0190911E
:1007D0001F01A0912001B091210130911D0123E062
:1007E000230F2D3758F50196A11DB11D20931D0132
:1007F00080931E0190931F01A0932001B0932101CB
:100800008091220190912301A0912401B0912501B2
:100810000196A11DB11D8093220190932301A09305
:100820002401B0932501BF91AF919F918F913F918A
:100830002F910F900FBE0F901F90189526E8230F51
:100840000296A11DB11DD2CF1F920F920FB60F922B
:1008500011242F933F934F935F936F937F938F93C5
:100860009F93AF93BF93EF93FF9386E291E00E9433
:10087000F502FF91EF91BF91AF919F918F917F9181
:100880006F915F914F913F912F910F900FBE0F90FD
:100890001F9018951F920F920FB60F9211242F934D
:1008A0008F939F93EF93FF93E0913601F09137017F
:1008B0008081E0913C01F0913D0182FD1BC090815F
:1008C00080913F018F5F8F7320914001821741F02B
:1008D000E0913F01F0E0EA5DFE4F958F80933F018C
:1008E000FF91EF919F918F912F910F900FBE0F90DD
:1008F0001F9018958081F4CF1F920F920FB60F9220
:1009000011242F933F934F935F936F937F938F9314
:100910009F93AF93BF93CF93DF93EF93FF93809118
:100920001601C091E701D0E087FF24C01092850036
:1009300010928400809116018F5F80931601809140
:100940001601082E000C990B8C179D0724F480913A
:1009500016018C30C4F1809184009091850004963A
:1009600080349C4908F47AC080918400909185007D
:10097000049676C080911601082E000C990B8C17F6
:100980009D07C4F6E09116018E2FEE0F990BFC0126
:10099000EE0FFF1FE80FF91FED53FE4F808186FF1A
:1009A000C9CFE09116018E2FEE0F990BFC01EE0FCF
:1009B000FF1FE80FF91FED53FE4F808160E08F733A
:1009C0000E945A01B7CF2091840030918500E091B8
:1009D00016018E2FEE0F990BFC01EE0FFF1FE80F93
:1009E000F91FED53FE4F81819281820F931F9093E7
:1009F000890080938800E09116018E2FEE0F990BED
:100A0000FC01EE0FFF1FE80FF91FED53FE4F808131
:100A100086FF11C0E09116018E2FEE0F990BFC019D
:100A2000EE0FFF1FE80FF91FED53FE4F808161E0CD
:100A30008F730E945A01FF91EF91DF91CF91BF9187
:100A4000AF919F918F917F916F915F914F913F9166
:100A50002F910F900FBE0F901F90189580E49CE986
:100A600090938900809388008FEF80931601E3CFE5
:100A7000109229011092280188EE93E0A0E0B0E0E6
:100A800080932A0190932B01A0932C01B0932D0108
:100A900084E091E0909327018093260185EC90E01B
:100AA000909333018093320184EC90E09093350170
:100AB0008093340180EC90E090933701809336016D
:100AC00081EC90E0909339018093380182EC90E0C2
:100AD00090933B0180933A0186EC90E090933D0126
:100AE00080933C0110923F0110924001109241010D
:100AF0001092420182E08093EB0183E08093EC014D
:100B00001092ED0161E082E00E94880160E0809136
:100B1000EC010E94880180E49CE9A0E0B0E08093B1
:100B2000F2019093F301A093F401B093F501809149
:100B3000E7018C3098F491E0980F9093E70180934F
:100B4000E80190E0FC01EE0FFF1FE80FF91FED53E5
:100B5000FE4F88EB9BE09283818308958FEF809313
:100B6000E8010895789484B5826084BD84B581607D
:100B700084BD85B5826085BD85B5816085BD809168
:100B80006E00816080936E001092810080918100E0
:100B900082608093810080918100816080938100D8
:100BA000809180008160809380008091B10084609A
:100BB0008093B1008091B00081608093B0008091FB
:100BC0007A00846080937A0080917A0082608093BA
:100BD0007A0080917A00816080937A0080917A0017
:100BE000806880937A001092C1008091E8018C3077
:100BF00008F051C061E085E00E9488018091E80121
:100C0000282F30E0F901EE0FFF1FE20FF31FED5325
:100C1000FE4F9081907C956090831092E901109234
:100C2000EA012CE0622F0E947107829FB00111241B
:100C300030E020E0AB01420F531FFA01EE0FFF1F1F
:100C4000E40FF51FED53FE4F908196FD16C02F5F08
:100C50003F4F2C30310571F781110FC01092800089
:100C600082E0809381001092850010928400B19AF6
:100C700080916F00826080936F00E091E8018E2F79
:100C800090E0FC01EE0FFF1FE80FF91FED53FE4F40
:100C90008081806480830E946B026093170170934F
:100CA00018018093190190931A01E0913601F09197
:100CB000370182E08083E0913201F09133011082AC
:100CC000E0913401F09135018FEC808310923E0168
:100CD000E0913A01F0913B0186E08083E091380198
:100CE000F0913901808180618083E0913801F09139
:100CF0003901808188608083E0913801F091390169
:100D0000808180688083E0913801F0913901808191
:100D10008F7D808308E310E080E0E82E80E0F82EED
:100D2000C0911B01D0911C01C43BD10594F50E94D8
:100D30006B028090170190901801A0901901B0905B
:100D40001A01681979098A099B096B3071058105B7
:100D5000910530F3CE010E948C000E946B026093DB
:100D60001701709318018093190190931A0121962D
:100D7000D0931C01C0931B010E94DE01B8010E94A8
:100D80007D0790E080E04AE00E9484030E94D20345
:100D9000C7CFC0911B01D0911C011C161D0694F5F4
:100DA0000E946B028090170190901801A090190189
:100DB000B0901A01681979098A099B096B3071058D
:100DC0008105910530F3CE010E948C000E946B02D8
:100DD00060931701709318018093190190931A0181
:100DE0002197D0931C01C0931B010E94DE01B80122
:100DF0000E947D0790E080E04AE00E9484030E9408
:100E0000D203C7CFE114F10409F48ACF0E94E102B2
:100E1000882309F485CF0E94000082CF052E97FB1E
:100E20001EF400940E94250757FD07D00E9440073A
:100E300007FC03D04EF40C9425075095409530954F
:100E400021953F4F4F4F5F4F089590958095709536
:100E500061957F4F8F4F9F4F08950E946207A59F16
:100E6000900DB49F900DA49F800D911D11240895A5
:100E7000B7FF0C942D070E942D07821B930B08953A
:100E8000A1E21A2EAA1BBB1BFD010DC0AA1FBB1F8E
:100E9000EE1FFF1FA217B307E407F50720F0A21B00
:100EA000B30BE40BF50B661F771F881F991F1A946D
:100EB00069F760957095809590959B01AC01BD0197
:100EC000CF010895A29FB001B39FC001A39F700DF1
:100ED000811D1124911DB29F700D811D1124911D42
:100EE0000895991B79E004C0991F961708F0961B86
:100EF000881F7A95C9F780950895AA1BBB1B51E1FD
:100F000007C0AA1FBB1FA617B70710F0A61BB70B79
:100F1000881F991F5A95A9F780959095BC01CD011E
:100F20000895EE0FFF1F0590F491E02D0994F894B9
:020F3000FFCFF1
:100F32000000000017037702A4026403D502B30283
:060F4200C7020D0A0000C9
:00000001FF
