:100000000C9462000C948A000C948A000C948A0070
:100010000C948A000C948A000C948A000C948A0038
:100020000C948A000C948A000C948A000C948A0028
:100030000C948A000C948A000C948A000C948A0018
:100040000C9426050C948A000C9496050C9470056B
:100050000C948A000C948A000C948A000C948A00F8
:100060000C948A000C948A000000000024002700F1
:100070002A0000000000250028002B0000000000DE
:1000800023002600290004040404040404040202DA
:100090000202020203030303030301020408102007
:1000A0004080010204081020010204081020000012
:1000B0000008000201000003040700000000000027
:1000C0000000C80511241FBECFEFD8E0DEBFCDBFB2
:1000D00011E0A0E0B1E0ECE4F0E102C005900D9287
:1000E000AA31B107D9F721E0AAE1B1E001C01D9220
:1000F000A03FB207E1F710E0C2E6D0E004C02197CC
:10010000FE010E941E08C136D107C9F70E94610690
:100110000C9424080C940000833081F028F4813082
:1001200099F08230A9F008958730A9F08830C9F09D
:100130008430B1F4809180008F7D03C08091800075
:100140008F7780938000089584B58F7784BD08955C
:1001500084B58F7DFBCF8091B0008F778093B00006
:1001600008958091B0008F7DF9CFCF93DF93282F32
:1001700030E0F901E255FF4F8491F901E656FF4F57
:10018000D491F901EA57FF4FC491CC23A1F081111A
:100190000E948C00EC2FF0E0EE0FFF1FE458FF4FA1
:1001A000A591B491EC91ED2381E090E009F480E019
:1001B000DF91CF91089580E090E0FACF1F93CF9325
:1001C000DF93282F30E0F901E255FF4F8491F901C8
:1001D000E656FF4FD491F901EA57FF4FC491CC2363
:1001E000A9F0162F81110E948C00EC2FF0E0EE0F89
:1001F000FF1FEE58FF4FA591B4918FB7F894EC9183
:10020000111108C0D095DE23DC938FBFDF91CF9111
:100210001F910895DE2BF8CFCF93DF93EC018091EF
:10022000DE019091DF01029749F4C130D10509F454
:100230003BC06CF560E0209709F437C08091DE0187
:100240009091DF01049749F4C130D10509F45CC0F5
:100250000CF037C0209709F442C08091DE019091E4
:10026000DF01059709F0E5C0CA30D10508F0E1C00B
:10027000FE01E35CFE4F0C941E089C01A801B9012D
:10028000CF01EA01EC01F301FF0110021702C230B5
:10029000D105A9F060E0C330D10581F68091E2017B
:1002A0000E94DE0060E006C061E08091E2010E94F1
:1002B000DE0061E08091E4010E94DE00BFCF61E0DA
:1002C000EDCFC230D10539F1C330D10509F0C5CF2A
:1002D00061E08091E2010E94DE0060E022C061E006
:1002E0008091E2010E94DE0060E08091E4010E94C2
:1002F000DE0061E08091E6010E94DE0060E0809116
:10030000E8010E94DE00A9CF60E08091E2010E9436
:10031000DE0061E0EACF60E08091E2010E94DE0051
:1003200061E08091E4010E94DE0060E08091E601DE
:100330000E94DE0061E0E3CF60E08091E2010E9474
:10034000DE0061E08091E4010E94DE0061E00BC00C
:1003500060E08091E2010E94DE0061E08091E401B2
:100360000E94DE0060E08091E6010E94DE0060E015
:1003700010C060E08091E2010E94DE0061E08091A7
:10038000E4010E94DE0060E08091E6010E94DE0050
:1003900061E08091E8010E94DE0061E015C060E04C
:1003A0008091E2010E94DE0061E08091E4010E9400
:1003B000DE0060E08091E6010E94DE0061E0809155
:1003C000E8010E94DE0060E08091EA01DF91CF91B8
:1003D0000C94DE0061E0E4CF61E08091E2010E94D4
:1003E000DE0060E0E2CF61E08091E2010E94DE0089
:1003F00060E08091E4010E94DE0061E0DBCF61E01B
:100400008091E2010E94DE0060E08091E4010E94A0
:10041000DE0061E08091E6010E94DE0060E0CFCF67
:1004200061E08091E2010E94DE0060E08BCF60E03D
:10043000F8CFDF91CF910895CF93DF9390E0FC0147
:10044000E656FF4F24918A579F4FFC0184918823E1
:10045000C9F090E0880F991FFC01E859FF4FA59162
:10046000B491FC01EE58FF4FC591D49161110DC0BC
:100470009FB7F8948C91209582238C9388812823B0
:1004800028839FBFDF91CF910895623051F49FB7C9
:10049000F8943C91822F809583238C93E8812E2BB6
:1004A000EFCF8FB7F894EC912E2B2C938FBFEACF20
:1004B0003FB7F89480911F0190912001A0912101F4
:1004C000B091220126B5A89B05C02F3F19F00196D7
:1004D000A11DB11D3FBFBA2FA92F982F8827BC019E
:1004E000CD01620F711D811D911D42E0660F771FC6
:1004F000881F991F4A95D1F70895CF92DF92EF9206
:10050000FF920F931F938130910509F05DC0909386
:10051000D7018093D6010E9458020091EC011091FE
:10052000ED012091EE013091EF016B017C01C01AC9
:10053000D10AE20AF30A0091D8011091D901209161
:10054000DA013091DB01C016D106E206F30618F39A
:100550006093EC017093ED018093EE019093EF01B5
:100560008091E0019091E1012091D6013091D70175
:100570002130310581F501969093E1018093E001EE
:100580002091DC013091DD018217930721F4109254
:10059000E1011092E0018091E0019091E101209150
:1005A000DE013091DF016AE070E02530310511F0A5
:1005B00064E070E00E94C9071F910F91FF90EF90D7
:1005C000DF90CF900C940C010196C9F41092D701E2
:1005D0001092D601A0CF892B41F48091DC0190913B
:1005E000DD019093E1018093E0018091E001909121
:1005F000E10101979093E1018093E001CCCF1F913D
:100600000F91FF90EF90DF90CF900895AF92BF923F
:10061000CF92DF92EF92FF920F931F93CF93DF93CE
:100620006C017B018B01040F151FEB015E01AE18FD
:10063000BF08C017D10759F06991D601ED91FC911F
:100640000190F081E02DC6010995892B79F7C5014C
:10065000DF91CF911F910F91FF90EF90DF90CF909E
:10066000BF90AF900895FC01538D448D252F30E04D
:10067000842F90E0821B930B541710F0CF960895AF
:1006800001970895FC01918D828D981761F0A28DDC
:10069000AE0FBF2FB11D5D968C91928D9F5F9F73A2
:1006A000928F90E008958FEF9FEF0895FC01918D58
:1006B000828D981731F0828DE80FF11D858D90E0C5
:1006C00008958FEF9FEF0895FC01918D228D892F62
:1006D00090E0805C9F4F821B91098F73992708954A
:1006E00083E291E00E94640321E0892B09F420E079
:1006F000822F089580E090E0892B29F00E947003FA
:1007000081110C9400000895FC01A48DA80FB92F4D
:10071000B11DA35ABF4F2C91848D90E001968F7329
:100720009927848FA689B7892C93A089B1898C9148
:10073000837080648C93938D848D981306C0028897
:10074000F389E02D80818F7D80830895EF92FF9261
:100750000F931F93CF93DF93EC0181E0888F9B8DE4
:100760008C8D98131AC0E889F989808185FF15C09E
:100770009FB7F894EE89FF896083E889F9898081C1
:100780008370806480839FBF81E090E0DF91CF9190
:100790001F910F91FF90EF900895F62E0B8D10E0B2
:1007A0000F5F1F4F0F731127E02E8C8D8E110CC021
:1007B0000FB607FCFACFE889F989808185FFF5CF6C
:1007C000CE010E948403F1CFEB8DEC0FFD2FF11DC4
:1007D000E35AFF4FF0829FB7F8940B8FEA89FB89A9
:1007E00080818062CFCFCF93DF93EC01888D882307
:1007F000B9F0AA89BB89E889F9898C9185FD03C084
:10080000808186FD0DC00FB607FCF7CF8C9185FF68
:10081000F2CF808185FFEDCFCE010E948403E9CF26
:10082000DF91CF9108950F931F93CF93DF93EC0146
:100830008A81882321F061E088810E941C0260E0A7
:1008400088810E94DE0083E090E00197F1F761E08B
:1008500088810E94DE0083E290E00197F1F760E07A
:1008600088810E94DE008A81882321F060E08881EF
:100870000E941C020E9458026B837C838D839E839E
:1008800089810E94B500892B99F40E9458020B813E
:100890001C812D813E81601B710B820B930B0F819C
:1008A000188529853A85061717072807390740F75D
:1008B0000E9458026B837C838D839E8389810E9472
:1008C000B500892B99F00E9458020B811C812D8163
:1008D0003E81601B710B820B930B0F81188529855C
:1008E0003A85061717072807390740F70E9458026C
:1008F0002B813C81CB01821B930BDF91CF911F9108
:100900000F910895FC0101900020E9F73197AF01A4
:10091000481B590BBC0183E291E00C9406038F92B3
:100920009F92AF92BF920F931F93CF93DF93CDB758
:10093000DEB7A1970FB6F894DEBF0FBECDBF19A2E8
:10094000423008F44AE08E010F5D1F4F842E912C37
:10095000B12CA12CA50194010E94DD07E62FB9015D
:10096000CA01EA30F4F4E05DD801EE938D01232B47
:10097000242B252B79F790E080E0109719F0CD011A
:100980000E948204A1960FB6F894DEBF0FBECDBFC1
:10099000DF91CF911F910F91BF90AF909F908F905B
:1009A0000895E95CE1CFEF92FF920F931F93CF93ED
:1009B000DF93CDB7DEB72B970FB6F894DEBF0FBE2F
:1009C000CDBFE982FA820B831C832D833E834F8344
:1009D000588769877A878B87CE0101960E94130416
:1009E00008E310E0B8010E94B50790E080E04AE01B
:1009F0000E948F0484E191E00E948204CE0144961B
:100A00000E941304B8010E94B50790E080E04AE01C
:100A10000E948F0484E191E00E9482046F8D70E057
:100A200090E080E04AE00E948F0486E191E00E941D
:100A300082042B960FB6F894DEBF0FBECDBFDF91B8
:100A4000CF911F910F91FF90EF9008951F920F92F9
:100A50000FB60F9211242F933F938F939F93AF93D1
:100A6000BF9380911B0190911C01A0911D01B09139
:100A70001E0130911A0123E0230F2D3758F50196FE
:100A8000A11DB11D20931A0180931B0190931C019D
:100A9000A0931D01B0931E0180911F019091200130
:100AA000A0912101B09122010196A11DB11D809359
:100AB0001F0190932001A0932101B0932201BF91C7
:100AC000AF919F918F913F912F910F900FBE0F90FB
:100AD0001F90189526E8230F0296A11DB11DD2CFB5
:100AE0001F920F920FB60F9211242F933F934F93A3
:100AF0005F936F937F938F939F93AF93BF93EF9386
:100B0000FF9383E291E00E948403FF91EF91BF91F4
:100B1000AF919F918F917F916F915F914F913F9195
:100B20002F910F900FBE0F901F9018951F920F924C
:100B30000FB60F9211242F938F939F93EF93FF93F0
:100B4000E0913301F09134018081E0913901F0911D
:100B50003A0182FD1BC0908180913C018F5F8F73B1
:100B600020913D01821741F0E0913C01F0E0ED5D04
:100B7000FE4F958F80933C01FF91EF919F918F9154
:100B80002F910F900FBE0F901F9018958081F4CF7A
:100B9000CF92DF92EF92FF92CF93DF93E3E2F1E007
:100BA0001382128288EE93E0A0E0B0E08483958304
:100BB000A683B78386E091E09183808385EC90E003
:100BC0009587848784EC90E09787868780EC90E017
:100BD000918B808B81EC90E0938B828B82EC90E008
:100BE000958B848B86EC90E0978B868B118E128E82
:100BF000138E148EC6EDD1E01B861A8619821882D8
:100C00001E8A1F8A188E198E80E098E09F838E833B
:100C10008BE090E09D878C8789E090E09F878E87AE
:100C20008AE090E0998B888B88E090E09B8B8A8BA0
:100C300061E08BE00E941C0261E08E850E941C0234
:100C400061E088890E941C0261E08A890E941C027E
:100C50001D8A1C8A84E090E099878887CBECD1E0DC
:100C600083E0888382E089831A8261E083E00E94C6
:100C70001C0260E089810E941C0280E4C82E8CE97D
:100C8000D82EE12CF12CCF82D886E986FA86C0ECEA
:100C9000D1E085E0888386E089831A8261E085E07F
:100CA0000E941C0260E089810E941C02CF82D886CB
:100CB000E986FA86DF91CF91FF90EF90DF90CF9099
:100CC0000895789484B5826084BD84B5816084BDC4
:100CD00085B5826085BD85B5816085BD80916E00DA
:100CE000816080936E00109281008091810082600B
:100CF0008093810080918100816080938100809148
:100D000080008160809380008091B1008460809336
:100D1000B1008091B00081608093B00080917A0032
:100D2000846080937A0080917A00826080937A0058
:100D300080917A00816080937A0080917A00806847
:100D400080937A001092C10062E08EE00E941C0243
:100D500062E08FE00E941C0262E083E10E941C02BC
:100D60002091DC013091DD01032E000C440B550B6A
:100D700060E077E883E993E00E94FF07CA01B901C8
:100D800025E030E040E050E00E94FF072093D801CA
:100D90003093D9014093DA015093DB01E0913301A4
:100DA000F091340182E08083E0912F01F0913001D5
:100DB0001082E0913101F09132018FEC808310922A
:100DC0003B01E0913701F091380186E08083E091AA
:100DD0003501F0913601808180618083E091350199
:100DE000F0913601808188608083E0913501F09137
:100DF0003601808180688083E0913501F091360171
:100E000080818F7D8083BB24B39480E0C82E80E0F6
:100E1000D82EAA24A3948EE00E94B500892B11F449
:100E2000A09201018FE00E94B500892B11F410926D
:100E3000010183E10E94B500892B11F41092000199
:100E400080910001811174C0C0E0D4E081E090E0A5
:100E50000E947D02BF9200D000D000D000D000D010
:100E60001F92ADB7BEB711968BE0E0ECF1E00190B8
:100E70000D928A95E1F7E090CB01F090CC010091C2
:100E8000CD011091CE012091CF013091D001409140
:100E9000D1015091D2016091D3017091D401809120
:100EA000D5010E94D30421978DB79EB70C960FB63B
:100EB000F8949EBF0FBE8DBF209741F6C0E0D4E0EE
:100EC0008FEF9FEF0E947D021F9200D000D000D0D4
:100ED00000D000D01F92ADB7BEB711968BE0E0EC0A
:100EE000F1E001900D928A95E1F7E090CB01F0904E
:100EF000CC010091CD011091CE012091CF01309114
:100F0000D0014091D1015091D2016091D3017091F3
:100F1000D4018091D5010E94D30421978DB79EB74B
:100F20000C960FB6F8949EBF0FBE8DBF209741F66A
:100F30008091000190910101992391F0882321F083
:100F400081E090E00E947D02C114D10409F463CFD6
:100F50000E947003882309F45ECF0E9400005BCFDB
:100F6000882391F38FEF9FEFEDCFAA1BBB1B51E1BD
:100F700007C0AA1FBB1FA617B70710F0A61BB70B09
:100F8000881F991F5A95A9F780959095BC01CD01AE
:100F9000089597FB072E16F4009407D077FD09D02B
:100FA0000E94B50707FC05D03EF4909581959F4FB0
:100FB0000895709561957F4F0895A1E21A2EAA1B9E
:100FC000BB1BFD010DC0AA1FBB1FEE1FFF1FA217F9
:100FD000B307E407F50720F0A21BB30BE40BF50BF6
:100FE000661F771F881F991F1A9469F7609570957F
:100FF000809590959B01AC01BD01CF010895052E10
:1010000097FB1EF400940E94160857FD07D00E941B
:10101000DD0707FC03D04EF40C941608509540955C
:10102000309521953F4F4F4F5F4F08959095809594
:10103000709561957F4F8F4F9F4F0895EE0FFF1F63
:0C1040000590F491E02D0994F894FFCF86
:10104C00010100000000A60306033303F30364034D
:0A105C004203560320000D0A0000B5
:00000001FF
