:100000000C9462000C948A000C948A000C948A0070
:100010000C948A000C948A000C948A000C948A0038
:100020000C948A000C948A000C948A000C94980416
:100030000C948A000C948A000C948A000C948A0018
:100040000C94F6030C948A000C9466040C944004FF
:100050000C948A000C948A000C948A000C948A00F8
:100060000C948A000C948A000000000024002700F1
:100070002A0000000000250028002B0000000000DE
:1000800023002600290004040404040404040202DA
:100090000202020203030303030301020408102007
:1000A0004080010204081020010204081020000012
:1000B0000008000201000003040700000000000027
:1000C0000000540511241FBECFEFD8E0DEBFCDBF26
:1000D00011E0A0E0B1E0E0EFFFE002C005900D927A
:1000E000A831B107D9F721E0A8E1B1E001C01D9224
:1000F000A83FB207E1F710E0C2E6D0E004C02197C4
:10010000FE010E94F007C136D107C9F70E94CE0553
:100110000C94F6070C940000CF92DF92EF92FF92BE
:10012000DC01A03282E0B807D4F5A53BB10514F09C
:10013000A4EBB0E04091EB0128E830E0241B31094A
:1001400047FD3395220F331F220F331F6901330FF1
:10015000EE08FF084091EC0128E532E0241B31094C
:1001600047FD3395220F331F220F331F032E000C40
:10017000440B550B2C193D094E095F09B7FF02C00E
:10018000B0E0A0E00E94970724EB30E040E050E0B0
:100190000E946D07C20ED31EE41EF51ED601E0912B
:1001A000EA01EC3080F52091EB0188E890E0821BB9
:1001B000910927FD9395880F991F880F991FA817FC
:1001C000B90784F02091EC0188E592E0821B910947
:1001D00027FD9395880F991F880F991FA817B907B6
:1001E0000CF4CD010297880F991F4FB7F8942E2F6A
:1001F00030E0F901EE0FFF1FE20FF31FEB53FE4F4C
:10020000928381834FBFFF90EF90DF90CF9008954E
:10021000833081F028F4813099F08230A9F008957C
:100220008730A9F08830C9F08430B1F48091800023
:100230008F7D03C0809180008F7780938000089528
:1002400084B58F7784BD089584B58F7DFBCF809171
:10025000B0008F778093B00008958091B0008F7DBB
:10026000F9CFCF93DF93282F30E0F901E255FF4F0C
:100270008491F901E656FF4FD491F901EA57FF4FF7
:10028000C491CC23A1F081110E940801EC2FF0E071
:10029000EE0FFF1FE458FF4FA591B491EC91ED23B1
:1002A00081E090E009F480E0DF91CF91089580E053
:1002B00090E0FACF1F93CF93DF93282F30E0F9011E
:1002C000E255FF4F8491F901E656FF4FD491F901B1
:1002D000EA57FF4FC491CC23A9F0162F81110E9439
:1002E0000801EC2FF0E0EE0FFF1FEE58FF4FA59135
:1002F000B4918FB7F894EC91111108C0D095DE231A
:10030000DC938FBFDF91CF911F910895DE2BF8CF43
:10031000CF93DF9390E0FC01E656FF4F24918A577C
:100320009F4FFC0184918823D1F090E0880F991FA2
:10033000FC01E859FF4FA591B491FC01EE58FF4F25
:10034000C591D49161110EC09FB7F8948C91E22FA2
:10035000E0958E238C932881E223E8839FBFDF9171
:10036000CF9108958FB7F894EC91E22BEC938FBF67
:10037000F6CF3FB7F8948091240190912501A09188
:100380002601B091270126B5A89B05C02F3F19F083
:100390000196A11DB11D3FBFBA2FA92F982F882705
:1003A000BC01CD01620F711D811D911D42E0660FE0
:1003B000771F881F991F4A95D1F708952FB7F89492
:1003C000609120017091210180912201909123017F
:1003D0002FBF0895AF92BF92CF92DF92EF92FF921C
:1003E0000F931F93CF93DF936C017B018B01040F5D
:1003F000151FEB015E01AE18BF08C017D10759F0F9
:100400006991D601ED91FC910190F081E02DC6013A
:100410000995892B79F7C501DF91CF911F910F9134
:10042000FF90EF90DF90CF90BF90AF900895FC01C8
:10043000538D448D252F30E0842F90E0821B930B49
:10044000541710F0CF96089501970895FC01918DEF
:10045000828D981761F0A28DAE0FBF2FB11D5D96F2
:100460008C91928D9F5F9F73928F90E008958FEF94
:100470009FEF0895FC01918D828D981731F0828D48
:10048000E80FF11D858D90E008958FEF9FEF08959F
:10049000FC01918D228D892F90E0805C9F4F821B03
:1004A00091098F739927089588E291E00E9448028C
:1004B00021E0892B09F420E0822F089580E090E06C
:1004C000892B29F00E94540281110C940000089598
:1004D000FC01A48DA80FB92FB11DA35ABF4F2C91B9
:1004E000848D90E001968F739927848FA689B789B0
:1004F0002C93A089B1898C91837080648C93938DA7
:10050000848D981306C00288F389E02D80818F7D49
:1005100080830895EF92FF920F931F93CF93DF9301
:10052000EC0181E0888F9B8D8C8D98131AC0E8892F
:10053000F989808185FF15C09FB7F894EE89FF89FE
:100540006083E889F98980818370806480839FBF9C
:1005500081E090E0DF91CF911F910F91FF90EF909C
:100560000895F62E0B8D10E00F5F1F4F0F731127AC
:10057000E02E8C8D8E110CC00FB607FCFACFE889E7
:10058000F989808185FFF5CFCE010E946802F1CF05
:10059000EB8DEC0FFD2FF11DE35AFF4FF0829FB75B
:1005A000F8940B8FEA89FB8980818062CFCFCF934B
:1005B000DF93EC01888D8823B9F0AA89BB89E8898B
:1005C000F9898C9185FD03C0808186FD0DC00FB631
:1005D00007FCF7CF8C9185FFF2CF808185FFEDCFAF
:1005E000CE010E946802E9CFDF91CF910895FC010E
:1005F00001900020E9F73197AF01481B590BBC016E
:1006000088E291E00C94EA018F929F92AF92BF92A0
:100610000F931F93CF93DF93CDB7DEB7A1970FB69C
:10062000F894DEBF0FBECDBF19A2423008F44AE0F5
:100630008E010F5D1F4F842E912CB12CA12CA50192
:1006400094010E949F07E62FB901CA01EA30F4F431
:10065000E05DD801EE938D01232B242B252B79F718
:1006600090E080E0109719F0CD010E94F702A1966A
:100670000FB6F894DEBF0FBECDBFDF91CF911F91B3
:100680000F91BF90AF909F908F900895E95CE1CF5C
:100690004F925F926F927F928F929F92AF92BF9292
:1006A000CF92DF92EF92FF920F931F93CF93DF933E
:1006B000CDB7DEB72B970FB6F894DEBF0FBECDBF18
:1006C000FA82588769877A878B87488459846A8435
:1006D0007B84002321F061E08E2D0E94880160E080
:1006E0008E2D0E945A0183E090E00197F1F761E0BE
:1006F0008E2D0E945A0183E290E00197F1F760E0AD
:100700008E2D0E945A01002321F060E08E2D0E9460
:1007100088010E94B9014B015C010A81802F0E946F
:100720003101892B59F40E94B901681979098A09A4
:100730009B09461657066806790678F70E94B901A4
:100740004B015C01802F0E943101892B59F00E94DE
:10075000B901681979098A099B094616570668067E
:10076000790680F70E94B901CB018819990968E3DD
:1007700070E00E94DC0790E080E04AE00E94040301
:1007800082E191E00E94F7020D2C000CEE08FF08B8
:100790004AE0C701B601F7FE0DC06DE288E291E0C4
:1007A0000E948A0266277727CB016C197D098E0982
:1007B0009F094AE00E94040384E191E02B960FB662
:1007C000F894DEBF0FBECDBFDF91CF911F910F9187
:1007D000FF90EF90DF90CF90BF90AF909F908F9061
:1007E0007F906F905F904F900C94F7021F920F9242
:1007F0000FB60F9211242F933F938F939F93AF9334
:10080000BF938091200190912101A0912201B0918C
:10081000230130911F0123E0230F2D3758F5019656
:10082000A11DB11D20931F018093200190932101F0
:10083000A0932201B093230180912401909125017E
:10084000A0912601B09127010196A11DB11D8093B1
:10085000240190932501A0932601B0932701BF9115
:10086000AF919F918F913F912F910F900FBE0F905D
:100870001F90189526E8230F0296A11DB11DD2CF17
:100880001F920F920FB60F9211242F933F934F9305
:100890005F936F937F938F939F93AF93BF93EF93E8
:1008A000FF9388E291E00E946802FF91EF91BF916F
:1008B000AF919F918F917F916F915F914F913F91F8
:1008C0002F910F900FBE0F901F9018951F920F92AF
:1008D0000FB60F9211242F938F939F93EF93FF9353
:1008E000E0913801F09139018081E0913E01F09171
:1008F0003F0182FD1BC09081809141018F5F8F730A
:1009000020914201821741F0E0914101F0E0E85D61
:10091000FE4F958F80934101FF91EF919F918F91B1
:100920002F910F900FBE0F901F9018958081F4CFDC
:100930001F920F920FB60F9211242F933F934F9354
:100940005F936F937F938F939F93AF93BF93CF9357
:10095000DF93EF93FF9380911801C091E901D0E0FC
:1009600087FF24C0109285001092840080911801A6
:100970008F5F8093180180911801082E000C990B4D
:100980008C179D0724F4809118018C30C4F180915C
:10099000840090918500049680349C4908F47AC0C4
:1009A0008091840090918500049676C08091180112
:1009B000082E000C990B8C179D07C4F6E0911801C6
:1009C0008E2FEE0F990BFC01EE0FFF1FE80FF91FA2
:1009D000EB53FE4F808186FFC9CFE09118018E2F27
:1009E000EE0F990BFC01EE0FFF1FE80FF91FEB5301
:1009F000FE4F808160E08F730E945A01B7CF209133
:100A0000840030918500E09118018E2FEE0F990B34
:100A1000FC01EE0FFF1FE80FF91FEB53FE4F818122
:100A20009281820F931F9093890080938800E091B8
:100A300018018E2FEE0F990BFC01EE0FFF1FE80F30
:100A4000F91FEB53FE4F808186FF11C0E091180122
:100A50008E2FEE0F990BFC01EE0FFF1FE80FF91F11
:100A6000EB53FE4F808161E08F730E945A01FF912A
:100A7000EF91DF91CF91BF91AF919F918F917F9136
:100A80006F915F914F913F912F910F900FBE0F90FB
:100A90001F90189580E49CE99093890080938800CA
:100AA0008FEF80931801E3CF10922B0110922A014F
:100AB00088EE93E0A0E0B0E080932C0190932D01AC
:100AC000A0932E01B0932F0184E091E0909329012F
:100AD0008093280185EC90E0909335018093340158
:100AE00084EC90E0909337018093360180EC90E0A5
:100AF000909339018093380181EC90E090933B0111
:100B000080933A0182EC90E090933D0180933C0108
:100B100086EC90E090933F0180933E01109241015A
:100B200010924201109243011092440182E080939E
:100B3000ED0183E08093EE011092EF0161E082E02D
:100B40000E94880160E08091EE010E94880180E4AB
:100B50009CE9A0E0B0E08093F4019093F501A093AC
:100B6000F601B093F7018091E9018C3098F491E09F
:100B7000980F9093E9018093EA0190E0FC01EE0F59
:100B8000FF1FE80FF91FEB53FE4F88EB9BE09283AA
:100B9000818308958FEF8093EA010895789484B556
:100BA000826084BD84B5816084BD85B5826085BD69
:100BB00085B5816085BD80916E00816080936E00F7
:100BC00010928100809181008260809381008091E9
:100BD000810081608093810080918000816080939A
:100BE00080008091B10084608093B1008091B0005A
:100BF00081608093B00080917A00846080937A0055
:100C000080917A00826080937A0080917A0081607E
:100C100080937A0080917A00806880937A001092A5
:100C2000C1008091EA018C3008F051C061E085E09C
:100C30000E9488018091EA01282F30E0F901EE0F2F
:100C4000FF1FE20FF31FEB53FE4F9081907C9560E6
:100C500090831092EB011092EC012CE0622F0E9425
:100C6000D007829FB001112430E020E0AB01420F99
:100C7000531FFA01EE0FFF1FE40FF51FEB53FE4F5A
:100C8000908196FD16C02F5F3F4F2C30310571F7D4
:100C900081110FC01092800082E080938100109239
:100CA000850010928400B19A80916F0082608093D9
:100CB0006F00E091EA018E2F90E0FC01EE0FFF1F24
:100CC000E80FF91FEB53FE4F80818064808390E032
:100CD00080E00E948C000E94DE01609319017093F5
:100CE0001A0180931B0190931C01E0913801F0914F
:100CF000390182E08083E0913401F0913501108266
:100D0000E0913601F09137018FEC80831092400121
:100D1000E0913C01F0913D0186E08083E0913A0151
:100D2000F0913B01808180618083E0913A01F091F4
:100D30003B01808188608083E0913A01F0913B0122
:100D4000808180688083E0913A01F0913B0180814D
:100D50008F7D80830E94B9014B015C0188EEC82E13
:100D600083E0D82EE12CF12C0E94B9016819790991
:100D70008A099B09683E734081059105A8F321E02B
:100D8000C21AD108E108F10888EE880E83E0981EA7
:100D9000A11CB11CC114D104E104F10429F7C0E085
:100DA000D0E0C0901D01D0901E0184EBC816D10484
:100DB0000CF040C00E94DE018090190190901A0151
:100DC000A0901B01B0901C01681979098A099B0940
:100DD0006B3071058105910520F3C6010E948C00DE
:100DE0000E94DE016093190170931A0180931B0128
:100DF00090931C012FEFC21AD20AD0921E01C0920A
:100E00001D01E090ED01F090EE010091EF011091D5
:100E1000F0012091F1013091F2014091F3015091E4
:100E2000F4016091F5017091F6018091F7010E9443
:100E30004803B7CFC0901D01D0901E011C141D04A3
:100E40000CF040C00E94DE018090190190901A01C0
:100E5000A0901B01B0901C01681979098A099B09AF
:100E60006B3071058105910528F3C6010E948C0045
:100E70000E94DE016093190170931A0180931B0197
:100E800090931C0181E0C81AD108D0921E01C09233
:100E90001D01E090ED01F090EE010091EF01109145
:100EA000F0012091F1013091F2014091F301509154
:100EB000F4016091F5017091F6018091F7010E94B3
:100EC0004803B8CF209709F46CCF0E9454028823BE
:100ED00009F467CF0E94000064CF052E97FB1EF433
:100EE00000940E94840757FD07D00E949F0707FCCB
:100EF00003D04EF40C94840750954095309521957D
:100F00003F4F4F4F5F4F0895909580957095619535
:100F10007F4F8F4F9F4F08950E94C107A59F900D4F
:100F2000B49F900DA49F800D911D11240895B7FFCB
:100F30000C948C070E948C07821B930B0895A1E2EE
:100F40001A2EAA1BBB1BFD010DC0AA1FBB1FEE1F43
:100F5000FF1FA217B307E407F50720F0A21BB30B8E
:100F6000E40BF50B661F771F881F991F1A9469F70A
:100F700060957095809590959B01AC01BD01CF0166
:100F80000895A29FB001B39FC001A39F700D811D62
:100F90001124911DB29F700D811D1124911D089582
:100FA000991B79E004C0991F961708F0961B881FBB
:100FB0007A95C9F780950895AA1BBB1B51E107C01C
:100FC000AA1FBB1FA617B70710F0A61BB70B881FD9
:100FD000991F5A95A9F780959095BC01CD01089568
:100FE000EE0FFF1F0590F491E02D0994F894FFCFC8
:100FF000000000008A02EA011702D7024802260216
:081000003A0220000D0A000075
:00000001FF
