:100000000C947E000C94A6000C94A6000C94A60000
:100010000C94A6000C94A6000C94A6000C94A600C8
:100020000C94A6000C94A6000C94A6000C94A600B8
:100030000C94A6000C94A6000C94A6000C94A600A8
:100040000C94CD070C94A6000C943D080C94170852
:100050000C94A6000C94A6000C94A6000C94A60088
:100060000C94A6000C94A600202C20004572726F00
:10007000722072656164696E672068756D69646974
:10008000747921004572726F722072656164696EC5
:10009000672074656D70657261747572652100000A
:1000A000000000240027002A00000000002500288E
:1000B000002B0000000008000201000003040700FC
:1000C00000000000000000000000002300260029BE
:1000D00000040404040404040402020202020203F1
:1000E00003030303030102040810204080010204FB
:1000F000081020010204081020006F0811241FBE00
:10010000CFEFD8E0DEBFCDBF11E0A0E0B1E0EEE67A
:10011000FBE102C005900D92A036B107D9F722E0AD
:10012000A0E6B1E001C01D92A433B207E1F710E0F0
:10013000CEE7D0E004C02197FE010E943E0ACD37F1
:10014000D107C9F70E94E8080C94B50D0C94000083
:10015000CF92DF92EF92FF921F93CF93DF93EC0148
:100160001F81662311F0912F01C090E0288530E0B7
:10017000220F331F29533F4FA0E0B0E0F901459112
:100180005491FA0180818123AD0160E070E0891310
:100190000FC01196CD84DE84EF84F8884C155D0580
:1001A0006E057F0558F33FEF2FEF8FEF9FEF03C0F2
:1001B0003A2F252FCB01632F722FDF91CF911F9103
:1001C000FF90EF90DF90CF900895FB01DC015396F4
:1001D0008C918C3041F038F48B3029F480E492E437
:1001E000AFE0B0E004C080E894E8AEE1B0E084A302
:1001F00095A3A6A3B7A30895CF93DF9390E0FC0146
:10020000EB51FF4F2491FC01EF52FF4F8491882363
:1002100061F190E0880F991FFC01E156FF4FC591F5
:10022000D491FC01E755FF4FA591B491611109C02C
:100230009FB7F8948881209582238883EC912E23A0
:100240000BC0623061F49FB7F8948881322F3095EB
:1002500083238883EC912E2B2C939FBF06C08FB7EE
:10026000F894E8812E2B28838FBFDF91CF910895DA
:100270003FB7F8948091650190916601A091670164
:10028000B091680126B5A89B05C02F3F19F00196D3
:10029000A11DB11D3FBFBA2FA92F982F8827820F0C
:1002A000911DA11DB11DBC01CD0142E0660F771F5C
:1002B000881F991F4A95D1F708958F929F92AF9208
:1002C000BF92CF92DF92EF92FF926B017C010E946E
:1002D00038014B015C01C114D104E104F104F1F0D7
:1002E0000E943801DC01CB0188199909AA09BB09D0
:1002F000883E9340A105B10570F321E0C21AD108F0
:10030000E108F10888EE880E83E0981EA11CB11C5C
:10031000C114D104E104F10419F7DDCFFF90EF908F
:10032000DF90CF90BF90AF909F908F9008958F9265
:100330009F92AF92BF92CF92DF92EF92FF920F9374
:100340001F93CF93DF93CDB7DEB7C054D1400FB624
:10035000F894DEBF0FBECDBF2FB7F894409169016E
:1003600050916A0160916B0170916C012FBFFC018B
:1003700001851285238534856A017B01C01AD10A63
:10038000E20AF30AE0EDCE16E7E0DE06E104F1044E
:1003900018F4FC01818905C18C01FC014187528759
:1003A000638774871482138212821182108262E042
:1003B00085810E94FC0061E070E080E090E00E9496
:1003C0005D0161E0F80185810E94FC00F8018581F2
:1003D00090E0FC01ED54FF4F2491FC01EB51FF4FE5
:1003E0003491FC01EF52FF4FE491EE23B9F1222347
:1003F00039F1233091F038F42130A9F0223001F5A1
:1004000084B58F7D12C0273091F02830A1F02430C0
:10041000B9F4809180008F7D03C0809180008F7738
:10042000809380000DC084B58F7784BD09C0809112
:10043000B0008F7703C08091B0008F7D8093B000B3
:10044000F0E0EE0FFF1FE755FF4FA591B4919FB766
:10045000F8948C91309538233C939FBFF8018681A6
:100460008551823028F48BE291E10197F1F706C0C3
:1004700064E170E080E090E00E945D0162E0F801DC
:1004800085810E94FC00F801828990E0823091050C
:1004900038F0880F991F880F991F05970197F1F77A
:1004A000F89460E0C8010E94A8006F3F7F4F8F4F13
:1004B0009F4F21F4F801118A789444C061E0C8018B
:1004C0000E94A8006F3F7F4F8F4F9F4F99F3CE013F
:1004D00001967C015E019FEBA91A9EEFB90A6701A4
:1004E00060E0C8010E94A800F601608371838283E6
:1004F000938361E0C8010E94A800F60164837583BC
:1005000086839783F8E0CF0ED11CCA14DB0441F731
:10051000789420E030E0F70180809180A280B38061
:100520004481558166817781FFEF8F169F06AF0664
:10053000BF0631F04F3F8FEF58076807780721F467
:10054000F801118A80E02DC0F90183E0F595E79567
:100550008A95E1F7E00FF11F8081880F84169506D8
:10056000A606B70608F4816080832F5F3F4FF8E04E
:10057000EF0EF11C2832310571F6F801248130E0CC
:100580004081818190E0840F911D4281840F911DF3
:100590004381840F911D99272817390789F681E037
:1005A000818BC05CDE4F0FB6F894DEBF0FBECDBFAF
:1005B000DF91CF911F910F91FF90EF90DF90CF903F
:1005C000BF90AF909F908F900895CF92DF92EF925F
:1005D000FF920F931F93CF93DF936C017A018B01EE
:1005E000C0E0D0E0CE15DF0581F0D8016D918D011E
:1005F000D601ED91FC910190F081E02DC6010995A5
:10060000892B11F02196EECF7E01C701DF91CF91AA
:100610001F910F91FF90EF90DF90CF900895089574
:1006200080E090E00895FC01538D448D252F30E04B
:10063000842F90E0821B930B541710F0CF960895EF
:1006400001970895FC01918D828D981761F0828D3C
:10065000DF01A80FB11D5D968C91928D9F5F9F73F6
:10066000928F90E008958FEF9FEF0895FC01918D98
:10067000828D981731F0828DE80FF11D858D90E005
:1006800008958FEF9FEF0895FC01918D228D892FA2
:1006900090E0805C9F4F821B91098F73992708958A
:1006A0008DE691E00E94440321E0892B09F420E0CB
:1006B000822F0895FC01848DDF01A80FB11DA35A7C
:1006C000BF4F2C91848D90E001968F739927848F72
:1006D000A689B7892C93A089B1898C918370806495
:1006E0008C93938D848D981306C00288F389E02D36
:1006F00080818F7D80830895EF92FF920F931F93E7
:10070000CF93DF93EC0181E0888F9B8D8C8D9813C4
:1007100005C0E889F989808185FD26C0F62E0B8DFC
:1007200010E00F5F1F4F0F731127E02E8C8DE81222
:100730000CC00FB607FCFACFE889F989808185FFE4
:10074000F5CFCE010E945A03F1CF8B8DFE01E80F49
:10075000F11DE35AFF4FF0829FB7F8940B8FEA899F
:10076000FB89808180620AC09FB7F894EE89FF8977
:100770006083E889F98980818370806480839FBF6A
:1007800081E090E0DF91CF911F910F91FF90EF906A
:1007900008950F931F93CF93DF938C01C0E0D0E0B7
:1007A000F801EC0FFD1F6491662341F08DE691E0A6
:1007B0000E947C03892B11F02196F2CFCE01DF91AC
:1007C000CF911F910F910895CF93DF93EC01888D06
:1007D0008823C9F0EA89FB89808185FD05C0A88945
:1007E000B9898C9186FD0FC00FB607FCF5CF8081CB
:1007F00085FFF2CFA889B9898C9185FFEDCFCE0115
:100800000E945A03E7CFDF91CF91089580E090E0F6
:10081000892B29F00E94500381110C940000089547
:10082000089508950895009769F0FC010190002053
:10083000E9F73197AF01481B590BBC018DE691E0F8
:100840000C94E50280E090E008952F923F924F9241
:100850005F926F927F928F929F92AF92BF92CF9250
:10086000DF92EF92FF920F931F93CF93DF93CDB759
:10087000DEB7A4970FB6F894DEBF0FBECDBF4B0115
:100880005C01F42E9B01AC010E947B0C882319F0C3
:1008900084E391E027C024013501E89477F82FEF35
:1008A0003FEF4FE75FE7C301B2010E947B0C81116C
:1008B0000DC02FEF3FEF4FE75FE7C301B2010E948A
:1008C000B10A18161CF488E391E00CC02FEF3FEF3B
:1008D0004FE75FE4C501B4010E94090C18162CF41F
:1008E0008CE391E00E941304B8C02FEF3FEF4FE775
:1008F0005FECC501B4010E94B10A87FDF1CF20E091
:1009000030E0A901C501B4010E94B10A87FF0BC004
:100910006DE28DE691E00E947C033C01B7FAB09451
:10092000B7F8B09402C0612C712C10E060E070E068
:1009300080E09FE3F11641F020E030E040E251E436
:100940000E94B60A1F5FF6CFA50194010E94450AD6
:100950004B015C010E94280B6AA3C72ED82EE92EFA
:1009600019A2262F372F482F592F8E010F5D1F4FA9
:100970000BA31CA39AE0292E312C412C512CCA0127
:10098000B901A20191010E941C0A605DF801629305
:100990008F01211531054105510589F7CF010E94CD
:1009A00013048301080F191FFF2009F455C06AA121
:1009B0007C2D8D2D9E2D0E94570B9B01AC01C501F6
:1009C000B4010E94440A4B015C016EE28DE691E0A5
:1009D0000E947C03080F191F8AE0282E312C412C1D
:1009E000512C20E030E040E251E4C501B4010E9406
:1009F0000E0C4B015C010E94280B9B0140E050E073
:100A000019A2CBA0DCA0762E3AA3642EE52ECA0153
:100A1000B901A20191010E941C0A605DF601629376
:100A20006F01211531054105510589F7CF010E945C
:100A30001304080F191F672D7AA1862D9E2D0E9481
:100A4000570B9B01AC01C501B4010E94440A4B0144
:100A50005C01FA94F110C5CFC801A4960FB6F894C2
:100A6000DEBF0FBECDBFDF91CF911F910F91FF90E1
:100A7000EF90DF90CF90BF90AF909F908F907F903E
:100A80006F905F904F903F902F900895CF93DF939A
:100A9000EB01FC0183898C3089F038F48B30C1F490
:100AA0004BE050E060E471E017C0853161F08631C1
:100AB00079F44BE050E062E571E00EC04BE050E0AD
:100AC00066E471E009C04BE050E06CE471E004C002
:100AD0004BE050E068E571E0CE010E94A60D1B8658
:100AE000DF91CF9108950E94A10D0F931F93CF9393
:100AF000DF938C01EB0188E2DB011D928A95E9F717
:100B0000F801838194810E94460581E090E0A0E095
:100B1000B0E08C879D87AE87BF87F801858196817D
:100B2000A781B085888B998BAA8BBB8B8CE090E0DA
:100B3000A0E0B0E08C8B9D8BAE8BBF8BBE01838120
:100B400094810E94E500D8011396ED91FC911497D1
:100B500083898C3069F038F48B30A1F580E090E027
:100B6000A0EAB2E409C08531C1F08631B1F02AC0F3
:100B700080E090E0AEEBB2E4888F998FAA8FBB8FB4
:100B800080E090E0A0EAB1E48C8F9D8FAE8FBF8FA4
:100B900080E090E0A0EAB0E410C080E090E0A8EC33
:100BA000B2E4888F998FAA8FBB8F1C8E1D8E1E8EEC
:100BB0001F8E8DEC9CECACECBDE388A399A3AAA39B
:100BC000BBA30CC0188E198E1A8E1B8E1C8E1D8E08
:100BD0001E8E1F8E18A219A21AA21BA2DF91CF91FE
:100BE0001F910F910895CF92DF92EF92FF920F9392
:100BF0001F93CF93DF93EB0124E2FB0111922A951F
:100C0000E9F744E250E060E070E0488359836A838A
:100C10007B83FC0145815681678170854C835D83B0
:100C20006E837F834CE050E060E070E04887598736
:100C30006A877B872FB7F8944091690150916A01C8
:100C400060916B0170916C012FBF488B598B6A8B3F
:100C50007B8B03811481C8010E9497018823B9F11D
:100C6000F80186818B3098F18D30A0F0855182306B
:100C700070F5F8016081718176276727762780E01B
:100C800090E00E94570B2DEC3CEC4CEC5DE30E9495
:100C90000E0C21C0F801618170E080E090E00E94BC
:100CA000590B2DEC3CEC4CEC5DE30E940E0C6B01FF
:100CB0007C01F801608170E080E090E00E94590BB7
:100CC0009B01AC01C701B6010E94450A04C060E067
:100CD00070E080EC9FE76C8B7D8B8E8B9F8B81E02F
:100CE000DF91CF911F910F91FF90EF90DF90CF9008
:100CF00008950F931F93CF93DF938C01EB0188E24C
:100D0000DB011D928A95E9F7F801838194810E94A5
:100D1000460581E090E0A0E0B0E08C879D87AE873B
:100D2000BF87F80185819681A781B085888B998BD3
:100D3000AA8BBB8B8DE090E0A0E0B0E08C8B9D8B0C
:100D4000AE8BBF8BBE01838194810E94E500D801E8
:100D50001396ED91FC91149783898C30F1F0A0F4F7
:100D60008B3009F048C080E090E0A8E4B2E4888FBE
:100D7000998FAA8FBB8F1C8E1D8E1E8E1F8E80E0BA
:100D800090E0A0E0B0E432C08531E1F0863199F521
:100D900080E090E0AAEFB2E419C080E090E0A0E724
:100DA000B2E4888F998FAA8FBB8F80E090E0A0EA91
:100DB000B1EC8C8F9D8FAE8FBF8F80E090E0A0E074
:100DC000BFE314C080E090E0A0EAB2E4888F998F7E
:100DD000AA8FBB8F80E090E0A0E2B2EC8C8F9D8F59
:100DE000AE8FBF8F8DEC9CECACECBDE388A399A3D8
:100DF000AAA3BBA30CC0188E198E1A8E1B8E1C8E34
:100E00001D8E1E8E1F8E18A219A21AA21BA2DF9180
:100E1000CF911F910F9108958F929F92AF92BF92A1
:100E2000EF92FF921F93CF93DF93EB0124E2FB013C
:100E300011922A95E9F744E250E060E070E04883BF
:100E400059836A837B83FC01458156816781708564
:100E50004C835D836E837F834DE050E060E070E003
:100E6000488759876A877B872FB7F8944091690133
:100E700050916A0160916B0170916C012FBF488B9A
:100E8000598B6A8B7B8BE380F480C7010E949701AA
:100E9000882309F46BC0F70186818C3009F445C0C2
:100EA00018F48B30C9F062C08551823008F05EC002
:100EB000F7011281612F6F7770E0762F66278381AB
:100EC000682B80E090E00E94570B2DEC3CEC4CEC42
:100ED0005DE30E940E0C46C0F701628170E080E085
:100EE00090E00E94570B4B015C01F701138117FF43
:100EF0000AC09B01AC0160E070E080E89FEB0E94BB
:100F0000440A4B015C01612F6F7070E080E090E05B
:100F10000E94590B2DEC3CEC4CEC5DE30E940E0C56
:100F2000A50194010E94450A25C0F7011281638141
:100F30006F7070E080E090E00E94590B2DEC3CEC6B
:100F40004CEC5DE30E940E0C4B015C01612F70E0E4
:100F500080E090E00E94570B9B01AC01C501B401F9
:100F60000E94450A17FF06C0905804C060E070E078
:100F700080EC9FE76C8B7D8B8E8B9F8B81E0DF916C
:100F8000CF911F91FF90EF90BF90AF909F908F9067
:100F900008950C94180D0C94180D1F920F920FB613
:100FA0000F9211242F933F938F939F93AF93BF93EF
:100FB0008091690190916A01A0916B01B0916C01DF
:100FC0003091640123E0230F2D3720F40196A11DF9
:100FD000B11D05C026E8230F0296A11DB11D209367
:100FE00064018093690190936A01A0936B01B093AF
:100FF0006C018091650190916601A0916701B091AB
:1010000068010196A11DB11D809365019093660151
:10101000A0936701B0936801BF91AF919F918F91A9
:101020003F912F910F900FBE0F901F9018951F9218
:101030000F920FB60F9211242F933F934F935F930C
:101040006F937F938F939F93AF93BF93EF93FF9390
:101050008DE691E00E945A03FF91EF91BF91AF910D
:101060009F918F917F916F915F914F913F912F91C0
:101070000F900FBE0F901F9018951F920F920FB6F2
:101080000F9211242F938F939F93EF93FF93E091EF
:101090007D01F0917E018081E0918301F0918401D6
:1010A00082FD12C09081809186018F5F8F732091A5
:1010B0008701821751F0E0918601F0E0E359FE4F7D
:1010C000958F8093860101C08081FF91EF919F9160
:1010D0008F912F910F900FBE0F901F901895EDE6F6
:1010E000F1E01382128288EE93E0A0E0B0E0848306
:1010F0009583A683B7838AE091E09183808385EC12
:1011000090E09587848784EC90E09787868780ECD1
:1011100090E0918B808B81EC90E0938B828B82ECC2
:1011200090E0958B848B86EC90E0978B868B118E6C
:10113000128E138E148EAAE0B2E085E015968C9381
:1011400015978BE016968C931697EAEEF0E0E491F3
:101150001796EC931797E6EDF0E0E4911896EC9370
:10116000189740E85EE360E070E01D964D935D9354
:101170006D937C93509753968C9353978AE291E0AA
:1011800055969C938E9354970A2E1B2E58961C921C
:101190000E92112457974FEF5FEFBA0159964D9376
:1011A0005D936D937C935C978CE191E05E969C934C
:1011B0008E935D970A2E1B2E91961C920E921124EF
:1011C000909792964D935D936D937C939597089528
:1011D000CF93DF93CDB7DEB7AD970FB6F894DEBFF0
:1011E0000FBECDBF789484B5826084BD84B5816024
:1011F00084BD85B5826085BD85B5816085BD8091E2
:101200006E00816080936E00109281008091810059
:101210008260809381008091810081608093810051
:10122000809180008160809380008091B100846013
:101230008093B1008091B00081608093B000809174
:101240007A00846080937A0080917A008260809333
:101250007A0080917A00816080937A0080917A0090
:10126000806880937A001092C100E0917D01F09136
:101270007E0182E08083E0917901F0917A01108211
:10128000E0917B01F0917C018FEC808310928501CD
:10129000E0918101F091820186E08083E0917F01FD
:1012A000F0918001808180618083E0917F01F091E5
:1012B0008001808188608083E0917F01F0918001CE
:1012C000808180688083E0917F01F091800180813E
:1012D0008F7D808362E080910F020E94FC002FB717
:1012E000F8948091690190916A01A0916B01B0918D
:1012F0006C012FBF805D9740A109B1098093130253
:1013000090931402A0931502B093160287E3809382
:101310001C0288EE93E0A0E0B0E08093600190931F
:101320006101A0936201B09363010AE211E08CE1D4
:10133000A82E81E0B82E60916001709161018091CA
:101340006201909163010E945D01809120028FA350
:101350001EA30DA3809121029091220299A788A734
:101360008091230290912402A0912502B09126023F
:101370008AA79BA7ACA7BDA7BE016F5F7F4FCE0119
:1013800085960E940C07CD88DE88EF88F88CA7012F
:101390009601C701B6010E947B0C882349F084E8BE
:1013A00090E00E94C9038DE591E00E94130405C0FE
:1013B00042E0C701B6010E942504809129028FA353
:1013C000BEA2ADA280912A0290912B0299A788A774
:1013D00080912C0290912D02A0912E02B0912F02AB
:1013E0008AA79BA7ACA7BDA7BE016F5F7F4FCE01A9
:1013F00085960E94F3056D897E898F89988D9B0162
:10140000AC010E947B0C882329F08CE690E00E94BE
:10141000C9030BC088E690E00E94C9036D897E89EC
:101420008F89988D42E00E9425048DE591E00E940D
:1014300013040E9406047FCFA1E21A2EAA1BBB1B35
:10144000FD010DC0AA1FBB1FEE1FFF1FA217B30790
:10145000E407F50720F0A21BB30BE40BF50B661FA6
:10146000771F881F991F1A9469F76095709580956A
:1014700090959B01AC01BD01CF010895EE0FFF1FB8
:101480000590F491E02D09945058BB27AA270E949B
:101490005C0A0C94CF0B0E94C10B38F00E94C80B61
:1014A00020F039F49F3F19F426F40C94BE0B0EF48F
:1014B000E095E7FB0C94B80BE92F0E94E00B58F382
:1014C000BA17620773078407950720F079F4A6F529
:1014D0000C94020C0EF4E0950B2EBA2FA02D0B01EC
:1014E000B90190010C01CA01A0011124FF27591B69
:1014F00099F0593F50F4503E68F11A16F040A22F6F
:10150000232F342F4427585FF3CF469537952795DF
:10151000A795F0405395C9F77EF41F16BA0B620BDE
:10152000730B840BBAF09150A1F0FF0FBB1F661F25
:10153000771F881FC2F70EC0BA0F621F731F841F68
:1015400048F4879577956795B795F7959E3F08F08E
:10155000B0CF9395880F08F09927EE0F9795879550
:1015600008950E94940B08F481E008950E94CA0A2D
:101570000C94CF0B0E94C80B58F00E94C10B40F096
:1015800029F45F3F29F00C94B80B51110C94030C13
:101590000C94BE0B0E94E00B68F39923B1F3552322
:1015A00091F3951B550BBB27AA2762177307840776
:1015B00038F09F5F5F4F220F331F441FAA1FA9F30C
:1015C00035D00E2E3AF0E0E832D091505040E695FA
:1015D000001CCAF72BD0FE2F29D0660F771F881F5B
:1015E000BB1F261737074807AB07B0E809F0BB0B4E
:1015F000802DBF01FF2793585F4F3AF09E3F510562
:1016000078F00C94B80B0C94030C5F3FE4F3983E15
:10161000D4F3869577956795B795F7959F5FC9F74A
:10162000880F911D9695879597F90895E1E0660FCB
:10163000771F881FBB1F621773078407BA0720F044
:10164000621B730B840BBA0BEE1F88F7E0950895AD
:101650000E94E80B88F09F5798F0B92F9927B7514F
:10166000B0F0E1F0660F771F881F991F1AF0BA9546
:10167000C9F714C0B13091F00E94020CB1E0089596
:101680000C94020C672F782F8827B85F39F0B93F88
:10169000CCF3869577956795B395D9F73EF49095F9
:1016A0008095709561957F4F8F4F9F4F0895E89477
:1016B00009C097FB3EF490958095709561957F4F9A
:1016C0008F4F9F4F9923A9F0F92F96E9BB27939548
:1016D000F695879577956795B795F111F8CFFAF458
:1016E000BB0F11F460FF1BC06F5F7F4F8F4F9F4F89
:1016F00016C0882311F096E911C0772321F09EE8E7
:10170000872F762F05C0662371F096E8862F70E04C
:1017100060E02AF09A95660F771F881FDAF7880F26
:101720009695879597F90895990F0008550FAA0B7C
:10173000E0E8FEEF16161706E807F907C0F01216E4
:101740001306E407F50798F0621B730B840B950BE7
:1017500039F40A2661F0232B242B252B21F408953C
:101760000A2609F4A140A6958FEF811D811D0895D9
:1017700097F99F6780E870E060E008959FEF80EC44
:10178000089500240A9416161706180609060895E7
:1017900000240A9412161306140605060895092E4D
:1017A0000394000C11F4882352F0BB0F40F4BF2BBC
:1017B00011F460FF04C06F5F7F4F8F4F9F4F0895FC
:1017C00057FD9058440F551F59F05F3F71F04795F2
:1017D000880F97FB991F61F09F3F79F087950895D7
:1017E000121613061406551FF2CF4695F1DF08C0F6
:1017F000161617061806991FF1CF86957105610513
:1018000008940895E894BB2766277727CB0197F9BA
:1018100008950E94940B08F48FEF08950E94210C04
:101820000C94CF0B0E94C10B38F00E94C80B20F023
:10183000952311F00C94B80B0C94BE0B11240C944E
:10184000030C0E94E00B70F3959FC1F3950F50E0DD
:10185000551F629FF001729FBB27F00DB11D639F62
:10186000AA27F00DB11DAA1F649F6627B00DA11D08
:10187000661F829F2227B00DA11D621F739FB00DAE
:10188000A11D621F839FA00D611D221F749F33271E
:10189000A00D611D231F849F600D211D822F762FB7
:1018A0006A2F11249F5750409AF0F1F088234AF094
:1018B000EE0FFF1FBB1F661F771F881F9150504000
:1018C000A9F79E3F510580F00C94B80B0C94030CC3
:1018D0005F3FE4F3983ED4F3869577956795B79587
:1018E000F795E7959F5FC1F7FE2B880F911D9695A1
:1018F000879597F908950E94940B880B990B08958A
:101900000F931F93CF93DF938230910510F482E001
:1019100090E0E0913202F091330220E030E0A0E06C
:10192000B0E0309719F1408151810281138148174D
:101930005907C8F08417950769F4109731F012968B
:101940000C93129713961C9327C0009332021093A6
:10195000330222C02115310519F04217530718F43C
:101960009A01BD01EF01DF01F801DBCF211531053F
:10197000F9F0281B390B2430310580F48A819B81D2
:101980006115710521F0FB019383828304C090935C
:10199000330280933202FE01329644C0FE01E20F10
:1019A000F31F8193919322503109398328833AC0E0
:1019B0002091300230913102232B41F42091020119
:1019C00030910301309331022093300220910001C5
:1019D000309101012115310541F42DB73EB74091F9
:1019E000040150910501241B350BE0913002F09168
:1019F0003102E217F307A0F42E1B3F0B281739071B
:101A000078F0AC014E5F5F4F2417350748F04E0F5A
:101A10005F1F50933102409330028193919302C033
:101A2000E0E0F0E0CF01DF91CF911F910F91089599
:101A3000CF93DF93009709F481C0FC0132971382A2
:101A40001282A0913202B0913302109781F420816A
:101A50003181820F931F209130023091310228177B
:101A6000390751F5F0933102E093300267C0ED0180
:101A700020E030E0CE17DF0740F44A815B819E0111
:101A800041155105F1F0EA01F5CFD383C2834081BE
:101A90005181840F951FC817D90759F488819981FE
:101AA000840F951F0296918380838A819B81938303
:101AB00082832115310529F4F0933302E093320239
:101AC0003DC0E901FB83EA8349915991C40FD51FB9
:101AD000EC17FD0761F480819181840F951F0296B8
:101AE000E90199838883828193819B838A83E0E0E3
:101AF000F0E012968D919C911397009719F0FD01DB
:101B0000DC01F7CF8D919C9111979D012E5F3F4F86
:101B1000820F931F2091300230913102281739072C
:101B200069F4309729F4109233021092320202C005
:101B300013821282B0933102A0933002DF91CF91D1
:101B4000089581E090E0F8940C94B50DFB01DC0160
:101B50004150504048F001900D920020C9F701C05B
:0E1B60001D9241505040E0F70895F894FFCFD9
:101B6E00000034022000000000007C03E502130395
:101B7E00E403440322033603000000001004C907E7
:101B8E001204F3057505000000001104CB071204C2
:101B9E000C0779066E616E00696E66006F766600E0
:101BAE004448543131004448543132004448543290
:101BBE0031004448543232004448543F000D0A006C
:00000001FF
