:100000000C9462000C948A000C948A000C948A0070
:100010000C948A000C948A000C948A000C948A0038
:100020000C948A000C948A000C948A000C948A0028
:100030000C948A000C948A000C948A000C948A0018
:100040000C94B0020C948A000C9420030C94FA02D5
:100050000C948A000C948A000C948A000C948A00F8
:100060000C948A000C948A000000000023002600F3
:10007000290000000008000201000003040700003E
:1000800000000000000000000000250028002B00F8
:1000900000000000240027002A00040404040404D3
:1000A0000404020202020202030303030303010227
:1000B00004081020408001020408102001020408F6
:1000C0001020740411241FBECFEFD8E0DEBFCDBFD7
:1000D00011E0A0E0B1E0E0EAF9E002C005900D9285
:1000E000A831B107D9F721E0A8E1B1E001C01D9224
:1000F000A43CB207E1F710E0C2E6D0E004C02197CB
:10010000FE010E94C304C136D107C9F70E94520301
:100110000C94CE040C940000CF93DF9390E0FC018C
:10012000E255FF4F2491FC01E656FF4F849188234E
:10013000C1F090E0880F991FFC01E057FF4FC59177
:10014000D491FC01EA57FF4FA591B4919FB7F89461
:100150008881E22FE0958E2388838C91E823EC93AD
:100160009FBFDF91CF910895833081F028F48130D3
:1001700099F08230A1F008958730A9F08830B9F065
:100180008430D1F4809180008F7D03C08091800005
:100190008F7780938000089584B58F7702C084B5EF
:1001A0008F7D84BD08958091B0008F7703C08091CA
:1001B000B0008F7D8093B00008958E3008F08E508F
:1001C0008770806480937C0080917A008064809343
:1001D0007A0080917A0086FDFCCF80917800209192
:1001E000790090E0922B08953FB7F8948091230115
:1001F00090912401A0912501B091260126B5A89BDC
:1002000005C02F3F19F00196A11DB11D3FBFBA2FA8
:10021000A92F982F8827820F911DA11DB11DBC0108
:10022000CD0142E0660F771F881F991F4A95D1F7CD
:100230000895CF92DF92EF92FF920F931F93CF9387
:10024000DF936C017A018B01C0E0D0E0CE15DF05B1
:1002500081F0D8016D918D01D601ED91FC91019055
:10026000F081E02DC6010995892B11F02196EECF82
:100270007E01C701DF91CF911F910F91FF90EF9009
:10028000DF90CF900895089580E090E00895FC01FC
:10029000538D448D252F30E0842F90E0821B930BEB
:1002A000541710F0CF96089501970895FC01918D91
:1002B000828D981761F0828DDF01A80FB11D5D96C8
:1002C0008C91928D9F5F9F73928F90E008958FEF36
:1002D0009FEF0895FC01918D828D981731F0828DEA
:1002E000E80FF11D858D90E008958FEF9FEF089541
:1002F000FC01918D228D892F90E0805C9F4F821BA5
:1003000091098F739927089587E291E00E947801FF
:1003100021E0892B09F420E0822F0895FC01848DCF
:10032000DF01A80FB11DA35ABF4F2C91848D90E01F
:1003300001968F739927848FA689B7892C93A089FA
:10034000B1898C91837080648C93938D848D981384
:1003500006C00288F389E02D80818F7D8083089517
:10036000EF92FF920F931F93CF93DF93EC0181E005
:10037000888F9B8D8C8D981305C0E889F9898081C1
:1003800085FD26C0F62E0B8D10E00F5F1F4F0F73FB
:100390001127E02E8C8DE8120CC00FB607FCFACFA7
:1003A000E889F989808185FFF5CFCE010E948E0111
:1003B000F1CF8B8DFE01E80FF11DE35AFF4FF08264
:1003C0009FB7F8940B8FEA89FB89808180620AC00D
:1003D0009FB7F894EE89FF896083E889F989808165
:1003E0008370806480839FBF81E090E0DF91CF9134
:1003F0001F910F91FF90EF900895CF93DF93EC0141
:10040000888D8823C9F0EA89FB89808185FD05C034
:10041000A889B9898C9186FD0FC00FB607FCF5CF6E
:10042000808185FFF2CFA889B9898C9185FFEDCFB6
:10043000CE010E948E01E7CFDF91CF91089580E039
:1004400090E0892B29F00E94840181110C94000016
:100450000895009769F0FC0101900020E9F73197B9
:10046000AF01481B590BBC0187E291E00C941901C4
:1004700080E090E008958F929F92AF92BF92CF92CA
:10048000DF92EF92FF920F931F93CF93DF93CDB73D
:10049000DEB7A1970FB6F894DEBF0FBECDBF6B01DC
:1004A0007C0197FF2BC06DE287E291E00E94B001D2
:1004B0008C0122273327A9012C193D094E095F0918
:1004C00019A2CE0181967C019AE0892E912CA12C53
:1004D000B12CCA01B901A50194010E94A104605D7B
:1004E000F70162937F01211531054105510589F717
:1004F000CF010E942902800F911F1DC09B01AC01FA
:1005000019A28E010F5D1F4F8AE0C82ED12CE12C5D
:10051000F12CCA01B901A70196010E94A104605DF6
:10052000F80162938F01211531054105510589F7C5
:10053000CF010E942902A1960FB6F894DEBF0FBE2C
:10054000CDBFDF91CF911F910F91FF90EF90DF9082
:10055000CF90BF90AF909F908F9008950E94C90454
:100560001F920F920FB60F9211242F933F938F93E8
:100570009F93AF93BF9380911F0190912001A09111
:100580002101B091220130911E0123E0230F2D376C
:1005900020F40196A11DB11D05C026E8230F029687
:1005A000A11DB11D20931E0180931F019093200176
:1005B000A0932101B0932201809123019091240105
:1005C000A0912501B09126010196A11DB11D809336
:1005D000230190932401A0932501B0932601BF919C
:1005E000AF919F918F913F912F910F900FBE0F90E0
:1005F0001F9018951F920F920FB60F9211242F93F0
:100600003F934F935F936F937F938F939F93AF939A
:10061000BF93EF93FF9387E291E00E948E01FF91D9
:10062000EF91BF91AF919F918F917F916F915F916A
:100630004F913F912F910F900FBE0F901F901895E3
:100640001F920F920FB60F9211242F938F939F93A7
:10065000EF93FF93E0913701F09138018081E091B1
:100660003D01F0913E0182FD12C0908180914001D8
:100670008F5F8F7320914101821751F0E09140010B
:10068000F0E0E95DFE4F958F8093400101C08081CD
:10069000FF91EF919F918F912F910F900FBE0F902F
:1006A0001F901895789484B5826084BD84B581606C
:1006B00084BD85B5826085BD85B5816085BD80912D
:1006C0006E00816080936E001092810080918100A5
:1006D000826080938100809181008160809381009D
:1006E000809180008160809380008091B10084605F
:1006F0008093B1008091B00081608093B0008091C0
:100700007A00846080937A0080917A00826080937E
:100710007A0080917A00816080937A0080917A00DB
:10072000806880937A001092C10083E10E948C005F
:1007300082E10E948C0081E10E948C0003E810E0BD
:10074000F80184913FEBE32E30E0F32EF701D491D2
:100750004BEAC42E40E0D42EF601C491CC2389F09C
:1007600081110E94B400EC2FF0E0EE0FFF1FEA575A
:10077000FF4FA591B4919FB7F8948C918D2B8C93DA
:100780009FBFE0913701F091380182E08083E091D2
:100790003301F09134011082E0913501F09136017E
:1007A0008FEC808310923F01E0913B01F0913C017E
:1007B00086E08083E0913901F0913A018081806187
:1007C0008083E0913901F0913A01808188608083D3
:1007D000E0913901F0913A01808180688083E09155
:1007E0003901F0913A0180818F7D808383E10E94FD
:1007F000DD00EC0190931D0180931C0182E10E94B9
:10080000DD0090931B0180931A01F8018491F70198
:10081000A490F601B490BB2091F081110E94B40025
:10082000EB2DF0E0EE0FFF1FE859FF4FA591B491BB
:100830002C912A2191E080E021F490E002C090E028
:1008400080E09093180180931901BE01DD0F880BA1
:10085000990B0E943B0282E191E00E942902609183
:100860001A0170911B01072E000C880B990B0E9436
:100870003B0282E191E00E9429026091180170918F
:100880001901072E000C880B990B0E943B0284E192
:1008900091E00E9429020E94F4002B013C0189E1B1
:1008A000882E912CA12CB12C0E94F400DC01CB01EC
:1008B00084199509A609B709883E9340A105B10599
:1008C00098F3F1E08F1A9108A108B10828EE420EC2
:1008D00023E0521E611C711C81149104A104B10417
:1008E00019F70E941F0282CFE7E2F1E01382128221
:1008F00088EE93E0A0E0B0E084839583A683B7837D
:1009000084E091E09183808385EC90E095878487F3
:1009100084EC90E09787868780EC90E0918B808BC9
:1009200081EC90E0938B828B82EC90E0958B848BB2
:1009300086EC90E0978B868B118E128E138E148E20
:100940000895A1E21A2EAA1BBB1BFD010DC0AA1F10
:10095000BB1FEE1FFF1FA217B307E407F50720F028
:10096000A21BB30BE40BF50B661F771F881F991FA3
:100970001A9469F760957095809590959B01AC01EC
:10098000BD01CF010895EE0FFF1F0590F491E02DFA
:10099000099481E090E0F8940C94CE04F894FFCF91
:1009A00000000000B00119014701FD017801560166
:0809B0006A0120000D0A00009D
:00000001FF
