:100000000C9462000C948A000C948A000C948A0070
:100010000C948A000C948A000C948A000C948A0038
:100020000C948A000C948A000C948A000C948A0028
:100030000C948A000C948A000C948A000C948A0018
:100040000C9429030C948A000C948A000C948A0066
:100050000C948A000C948A000C948A000C948A00F8
:100060000C948A000C948A000000000024002700F1
:100070002A0000000000250028002B0000000000DE
:1000800023002600290004040404040404040202DA
:100090000202020203030303030301020408102007
:1000A0004080010204081020010204081020000012
:1000B0000008000201000003040700000000000027
:1000C0000000BC0411241FBECFEFD8E0DEBFCDBFBF
:1000D00011E0A0E0B1E0EAEFFAE002C005900D9275
:1000E000A432B107D9F721E0A4E2B1E001C01D922A
:1000F000AF34B207E1F710E0C2E6D0E004C02197C8
:10010000FE010E947005C136D107C9F70E94730332
:100110000C947B050C940000833081F028F481302E
:1001200099F08230A1F008958730A9F08830B9F0B5
:100130008430D1F4809180008F7D03C08091800055
:100140008F7780938000089584B58F7702C084B53F
:100150008F7D84BD08958091B0008F7703C080911A
:10016000B0008F7D8093B0000895CF93DF93282F48
:1001700030E0F901E255FF4F8491F901E656FF4F57
:10018000D491F901EA57FF4FC491CC2391F081112A
:100190000E948C00EC2FF0E0EE0FFF1FE458FF4FA1
:1001A000A591B491EC91ED2381E090E021F480E001
:1001B00002C080E090E0DF91CF9108951F93CF932C
:1001C000DF93282F30E0F901E255FF4F8491F901C8
:1001D000E656FF4FD491F901EA57FF4FC491CC2363
:1001E000C1F0162F81110E948C00EC2FF0E0EE0F71
:1001F000FF1FEE58FF4FA591B4919FB7F8941111CE
:1002000004C08C91D095D82302C0EC91DE2BDC93F6
:100210009FBFDF91CF911F910895AF92BF92CF9270
:10022000DF92EF92FF920F931F93CF93DF938C0196
:100230005C018EE0A80EB11CC42ED12CC0E0D0E031
:10024000E62EF12CCC15DD0579F0B7010C2E02C09D
:10025000759567950A94E2F76170F50181915F01E8
:100260000E94DE002196EECF61E0F80185850E94B4
:10027000DE0060E0F8018585DF91CF911F910F913D
:10028000FF90EF90DF90CF90BF90AF900C94DE0086
:10029000CF93DF9390E0FC01E656FF4F2491FC01E1
:1002A000EA57FF4F8491882361F190E0880F991FEE
:1002B000FC01E859FF4FC591D491FC01EE58FF4F66
:1002C000A591B491611109C09FB7F89488812095D8
:1002D00082238883EC912E230BC0623061F49FB798
:1002E000F8948881322F309583238883EC912E2BCC
:1002F0002C939FBF06C08FB7F894E8812E2B2883DC
:100300008FBFDF91CF9108953FB7F894809134016A
:1003100090913501A0913601B091370126B5A89B87
:1003200005C02F3F19F00196A11DB11D3FBFBA2F87
:10033000A92F982F8827820F911DA11DB11DBC01E7
:10034000CD0142E0660F771F881F991F4A95D1F7AC
:1003500008958F929F92AF92BF92CF92DF92EF92C9
:10036000FF926B017C010E9484014B015C01C1146E
:10037000D104E104F104F1F00E948401DC01CB011D
:1003800088199909AA09BB09883E9340A105B105BE
:1003900070F321E0C21AD108E108F10888EE880E56
:1003A00083E0981EA11CB11CC114D104E104F10426
:1003B00019F7DDCFFF90EF90DF90CF90BF90AF9017
:1003C0009F908F900895CF92DF92EF92FF920F93BC
:1003D0001F93CF93DF936C017A018B01C0E0D0E0D3
:1003E000CE15DF0581F0D8016D918D01D601ED911B
:1003F000FC910190F081E02DC6010995892B11F047
:100400002196EECF7E01C701DF91CF911F910F9111
:10041000FF90EF90DF90CF900895FC0186898F3F89
:1004200079F021853285662319F0232B31F403C03E
:100430002130310511F461E001C060E00C94DE0070
:100440000895EF92FF921F93CF93DF93EC01162F45
:100450007A0161E0812F0E9448011E8BFA86E986AD
:10046000E881F9810484F585E02D60E0CE01DF911B
:10047000CF911F91FF90EF9009940F931F93CF930B
:10048000DF93EC01162F042F61E0413009F060E0AA
:100490008B850E94DE008C858F3F19F060E00E9402
:1004A000DE00023081F08C8184FF02C048E00CC085
:1004B000612F70E084E0759567958A95E1F744E0D7
:1004C000CE010E940D0144E0612FCE01DF91CF915A
:1004D0001F910F910C940D01DC01ED91FC910684AC
:1004E000F785E02D41E0099581E090E00895DC0179
:1004F000ED91FC910684F785E02D40E009940F937F
:100500001F93CF93DF93EC01423018F08C81886009
:100510008C834F836887222329F0413019F48C8122
:1005200084608C8364E670E080E090E00E94A90122
:100530006C8164FD31C0E881F9810684F785E02D86
:1005400042E063E0CE0109958BE496E40197F1F770
:10055000E881F9810684F785E02D42E063E0CE0171
:10056000099503E512E0C8010197F1F7E881F981E7
:100570000684F785E02D42E063E0CE010995C801CD
:100580000197F1F7E881F9810684F785E02D42E0D3
:1005900062E0CE01099517C06062CE010E94770229
:1005A0008BE496E40197F1F76C816062CE010E94C2
:1005B000770203E512E0C8010197F1F76C816062F0
:1005C000CE010E947702C8010197F1F76C81606249
:1005D000CE010E9477028BEE90E00197F1F784E064
:1005E0008D836CE0CE010E94770261E0CE010E9413
:1005F00077028BE39FE10197F1F782E08E8366E05B
:10060000CE010E947702E881F9810484F585E02D0E
:100610006FEFCE01DF91CF911F910F910994089553
:100620000895089580E090E00895009769F0FC0136
:1006300001900020E9F73197AF01481B590BBC012D
:1006400088E391E00C94E30180E090E008950E943B
:1006500076051F920F920FB60F9211242F933F939E
:100660008F939F93AF93BF9380913001909131010D
:10067000A0913201B091330130912F0123E0230F7B
:100680002D3720F40196A11DB11D05C026E8230FCA
:100690000296A11DB11D20932F01809330019093EC
:1006A0003101A0933201B0933301809134019091D4
:1006B0003501A0913601B09137010196A11DB11D00
:1006C0008093340190933501A0933601B0933701A4
:1006D000BF91AF919F918F913F912F910F900FBE3E
:1006E0000F901F901895CF93DF93CDB7DEB7A197EA
:1006F0000FB6F894DEBF0FBECDBF789484B582608C
:1007000084BD84B5816084BD85B5826085BD85B5B5
:10071000816085BD80916E00816080936E00109233
:1007200081008091810082608093810080918100AE
:10073000816080938100809180008160809380003F
:100740008091B10084608093B1008091B00081609D
:100750008093B00080917A00846080937A008091C9
:100760007A00826080937A0080917A008160809321
:100770007A0080917A00806880937A001092C1009C
:1007800061E08EE00E94480161E081E10E94480141
:1007900061E08EE00E94DE0060E081E10E94DE0008
:1007A00020E042E060E188E391E00E947F0280E483
:1007B0009CE9A0E0B0E080932B0190932C01A093E2
:1007C0002D01B0932E018BE3E82E8FE1F82E93E0FC
:1007D000C92ED12C23E2A22EB12C38E3232E312CAA
:1007E0004AE0442E512C612C712C50E0852E50E0B3
:1007F000952E61E088E391E00E947702C70101979E
:10080000F1F784E191E00E9415038091260188238D
:1008100029F061E0809124010E94480160E080910C
:1008200024010E94DE00C6010197F1F761E080918A
:1008300024010E94DE00C5010197F1F760E080917C
:1008400024010E94DE0080912601882329F060E0C7
:10085000809124010E9448010E9484016093270135
:10086000709328018093290190932A01809125019A
:100870000E94B500892BE9F40E94840100912701B0
:10088000109128012091290130912A01DC01CB012E
:10089000801B910BA20BB30B00912B0110912C012B
:1008A00020912D0130912E01081719072A073B07C7
:1008B000E8F60E94840160932701709328018093D9
:1008C000290190932A01809125010E94B500892B6E
:1008D000E9F00E94840100912701109128012091E4
:1008E000290130912A01DC01CB01801B910BA20B65
:1008F000B30B00912B0110912C0120912D0130910F
:100900002E01081719072A073B07E8F60E94840101
:100910002091270130912801CB01821B930BB1015B
:100920000E943A059B0140E050E019A28E010F5D44
:100930001F4FCA01B901A30192010E944E05605DDB
:10094000F80162938F01211531054105510589F7A1
:10095000CF010E9415038FE191E00E94150364EF1F
:1009600071E080E090E00E94A9018114910409F4F3
:1009700040CF0E9400003DCFCF93DF9310923B0108
:1009800010923A0184E091E090933901809338010C
:100990008CE0809343018FEF809344018BE0809340
:1009A000450186E08093460185E08093470184E01D
:1009B0008093480183E08093490110924A0110928C
:1009C0004B0110924C0110924D01C6E4D1E061E060
:1009D00089910E94480181E0CA34D807C1F761E0DB
:1009E000809143010E944801809144018F3F19F09A
:1009F00061E00E94480161E0809145010E94480148
:100A000010923C0160E0809143010E94DE0060E0B2
:100A1000809145010E94DE00809144018F3F19F0D2
:100A200060E00E94DE008FEF80934E011092420141
:100A300010924101109226018FE08093240180E101
:100A40008093250161E08FE00E94480160E0809181
:100A500025010E94480180E29EE4A0E0B0E080937E
:100A60002B0190932C01A0932D01B0932E01DF91C7
:100A7000CF910895AA1BBB1B51E107C0AA1FBB1F42
:100A8000A617B70710F0A61BB70B881F991F5A951A
:100A9000A9F780959095BC01CD010895A1E21A2E89
:100AA000AA1BBB1BFD010DC0AA1FBB1FEE1FFF1F12
:100AB000A217B307E407F50720F0A21BB30BE40B62
:100AC000F50B661F771F881F991F1A9469F76095A9
:100AD0007095809590959B01AC01BD01CF01089563
:100AE000EE0FFF1F0590F491E02D099481E090E056
:0A0AF000F8940C947B05F894FFCFF6
:100AFA00000000006C02E301120311037F022102CD
:100B0A000D023D0244697374616E63653A200020E8
:040B1A00636D000007
:00000001FF
